S013000053442D436172642D546573742E6865786E
S11300000060002095590000F1560000FD560000E4
S1130010FD560000FD560000FD560000FD56000090
S1130020FD560000FD560000FD560000251300009B
S1130030FD560000FD5600004D130000091300009A
S1130040FD560000FD560000FD560000FD56000060
S1130050FD560000FD560000FD560000FD56000050
S1130060FD560000FD560000FD5600005D440000F2
S1130070FD560000FD560000FD560000FD56000030
S1130080FD560000FD560000FD560000FD56000020
S1130090FD560000FD560000FD560000FD56000010
S11300A0FD560000FD560000FD560000FD56000000
S11300B0FD560000FD560000FD560000FD560000F0
S1130400FFFFFFFFFFFFFFFFFFFFFFFF7EFFFFFF79
S113041002B4714649084900095649008E4402BC99
S11304207047C04602B4714649084900095C490056
S11304308E4402BC7047C046002934D001230022F8
S113044010B488422CD301242407A14204D281424F
S113045002D209011B01F8E7E400A14204D281425F
S113046002D249005B00F8E7884201D3401A1A43DC
S11304704C08A04202D3001B5C0822438C08A04213
S113048002D3001B9C082243CC08A04202D3001BC9
S1130490DC082243002803D01B0901D00909E3E743
S11304A0101C10BC7047002801D00020C04307B4C2
S11304B0024802A14018029003BDC0461900000082
S11304C00029F0D003B5FFF7B9FF0EBC4243891AE7
S11304D01847C0467047C04680B500AF034B1B6841
S11304E05A1C024B1A60BD4680BDC046D8E0FF1FAF
S11304F080B582B000AF00237B60374B1B68002BB4
S113050001D172B6FEE700F0D1FE334B1B685A1ED0
S1130510314B1A60304B1B68002B56D12F4B1B6894
S1130520002B52D02FE02E4BDB68DB683B603B682E
S11305301833181C00F0A2FF3B680433181C00F0A9
S11305409DFF3B68DA6A274B1B689A4203D93B68D4
S1130550DA6A244B1A603B68DA6A131C9B009B1806
S11305609B00214A9A183B680433101C191C00F0A4
S11305702DFF3B68DA6A1D4B1B68DB6A9A4202D383
S11305801B4B01221A60164B1B68002BCBD1194B55
S11305901B68002B11D00CE000F02EF8031C002B7C
S11305A002D0134B01221A60124B1B685A1E114BC6
S11305B01A60104B1B68002BEED10D4B1B68012BEE
S11305C003D101237B6000F091FE00F07FFE7B6885
S11305D0181CBD4602B080BDD8E0FF1FBCE0FF1F61
S11305E094E0FF1FC4E0FF1F14E0FF1F10E0FF1F93
S11305F0D0E0FF1FCCE0FF1F80B586B000AF002322
S11306007B61524B1B68002B00D08CE0504B1B6865
S11306105A1C4F4B1A604E4B1B683B613B69002BC5
S113062017D14C4B1B681B68002B01D072B6FEE738
S1130630484B1B68FB60484B1A68464B1A60464B94
S1130640FA681A60454B1B685A1C444B1A6000F048
S11306502BFA434B1B683A699A4250D300E0C046D8
S11306603C4B1B681B68002B01D1012300E00023D5
S1130670002B04D03A4B012252421A603FE0354B22
S11306801B68DB68DB68BB60BB685B687B603A69DE
S11306907B689A4203D2324B7A681A602FE0BB68B7
S11306A00433181C00F0EAFEBB689B6A002B04D0DC
S11306B0BB681833181C00F0E1FEBB68DA6A294BEA
S11306C01B689A4203D9BB68DA6A264B1A60BB6876
S11306D0DA6A131C9B009B189B00234A9A18BB6878
S11306E00433101C191C00F071FEBB68DA6A1F4B3E
S11306F01B68DB6A9A42B2D301237B61AFE71B4BD1
S11307001B68DA6A1849131C9B009B189B005B58F2
S1130710012B01D901237B61154B1B68002B09D1E7
S113072005F09EF906E0124B1B685A1C104B1A6028
S113073005F096F90F4B1B68002B01D001237B6158
S11307407B69181CBD4606B080BDC046D8E0FF1FBB
S1130750C0E0FF1F8CE0FF1F90E0FF1FD4E0FF1FED
S113076000E0FF1FC4E0FF1F14E0FF1F10E0FF1FA5
S1130770CCE0FF1FD0E0FF1F80B582B000AF294B53
S11307801B68002B03D0284B01221A6047E0264B3C
S113079000221A60254B1B681A68244B1B681B6BCC
S11307A09A4214D8214B1A68204B1B683433101C0E
S11307B0191C05F04DF90AE01D4B1B68002B01D1F3
S11307C072B6FEE71A4B1B685A1E194B1A60184B77
S11307D01A681849131C9B009B189B005B58002B3C
S11307E0EAD0134B1A68131C9B009B189B00114AF8
S11307F09B187B607B685B685A687B685A607B687F
S11308005A687B6808339A4204D17B685B685A68EB
S11308107B685A607B685B68DA68044B1A60BD4683
S113082002B080BDD8E0FF1FD0E0FF1F10E0FF1F23
S1130830C4E0FF1F14E0FF1F80B584B000AF7860F0
S113084039607B68002B01D172B6FEE7124B1B683E
S113085018337A68101C191C00F0DAFD0E4B1B6863
S11308600433181C00F00AFE3B68013308D10A4B1C
S11308701B680433094A101C191C00F0A7FD08E08A
S1130880074B1A683B68D318FB60FB68181C00F020
S1130890D5F8BD4604B080BD10E0FF1FA8E0FF1FDF
S11308A0C0E0FF1F80B584B000AF78607B68DB6870
S11308B0DB68BB60BB68002B01D172B6FEE7BB6886
S11308C01833181C00F0DAFD1E4B1B68002B1DD1D9
S11308D0BB680433181C00F0D1FDBB68DA6A1A4BFC
S11308E01B689A4203D9BB68DA6A174B1A60BB6863
S11308F0DA6A131C9B009B189B00144A9A18BB6865
S11309000433101C191C00F061FD06E0BB681833A9
S11309100F4A101C191C00F059FDBB68DA6A0D4B14
S11309201B68DB6A9A4205D90123FB600A4B01224A
S11309301A6001E00023FB60FB68181CBD4604B08C
S113094080BDC046D8E0FF1FC4E0FF1F14E0FF1FB6
S113095094E0FF1F10E0FF1FD0E0FF1F80B582B0BE
S113096000AF78607B68002B01D172B6FEE7054BBF
S11309701A687B681A60044B1A687B685A60BD4623
S113098002B080BDD4E0FF1FC0E0FF1F80B584B07B
S113099000AF786039607B68002B01D172B6FEE746
S11309A03B68002B01D172B6FEE700F07FFC1C4BC4
S11309B01B68BB603B681B68013302D10023FB60EA
S11309C027E07B681A68174B1B689A4207D07B683C
S11309D05A68BB689A4202D80123FB6019E07B681D
S11309E05B68BA68D21A3B681B689A420FD23B68AC
S11309F01A687B685968BB68CB1AD2183B681A60BE
S1130A007B68181CFFF7AAFF0023FB6001E00123A9
S1130A10FB6000F05BFCFB68181CBD4604B080BDA5
S1130A20C0E0FF1FD4E0FF1F80B500AF024B0122DE
S1130A301A60BD4680BDC046D0E0FF1F80B582B0BD
S1130A4000AF7860134B1B687A685A60124B1B68BE
S1130A507A689A4209D2114B1A680E4B1B68043308
S1130A60101C191C00F0D4FC10E00D4B1A68094B43
S1130A701B680433101C191C00F0CAFC094B1B68CA
S1130A807A689A4202D2074B7A681A60BD4602B06D
S1130A9080BDC04610E0FF1FC0E0FF1F90E0FF1FB5
S1130AA08CE0FF1F00E0FF1F80B582B000AF0D4B4C
S1130AB01B681B68002B01D1012300E00023002BDD
S1130AC004D0094B012252421A6008E0054B1B680E
S1130AD0DB68DB687B607B685A68034B1A60BD4641
S1130AE002B080BD8CE0FF1F00E0FF1F80B582B024
S1130AF000AF044B1B687B607B68181CBD4602B0CA
S1130B0080BDC04610E0FF1F80B582B000AF0A4B25
S1130B101B68002B02D101237B6008E0074B1B6894
S1130B20002B02D102237B6001E000237B607B6801
S1130B30181CBD4602B080BDC8E0FF1FD8E0FF1FEF
S1130B4080B584B000AF78607B68FB607B68002B65
S1130B504AD0FB68DA6A264B1B68DB6A9A4243D2A6
S1130B60FB689B69002B06DB214B1B68DB6A0622B2
S1130B70D21AFB689A61FB685969FB68DA6A131C2C
S1130B809B009B189B001B4A9B18994201D101238F
S1130B9000E00023002B22D0FB680433181C00F073
S1130BA06DFC134B1B68DA6AFB68DA62FB68DA6A6D
S1130BB0114B1B689A4203D9FB68DA6A0E4B1A6020
S1130BC0FB68DA6A131C9B009B189B00094A9A185D
S1130BD0FB680433101C191C00F0F8FB04E0044B00
S1130BE01B68DA6AFB68DA62BD4604B080BDC046A1
S1130BF010E0FF1F14E0FF1FC4E0FF1F80B584B0A6
S1130C0000AF78607B68FB607B68002B30D0FB68AA
S1130C10DA6AFB681B6C9A422AD0FB680433181CFE
S1130C2000F02CFCFB681A6CFB68DA62FB689B69B9
S1130C30002B05DBFB68DB6A0622D21AFB689A618B
S1130C40FB68DA6A0C4B1B689A4203D9FB68DA6AC0
S1130C50094B1A60FB68DA6A131C9B009B189B0003
S1130C60064A9A18FB680433101C191C00F0AEFBEA
S1130C70BD4604B080BDC046C4E0FF1F14E0FF1FA2
S1130C8080B584B000AF021CFB1D1A704C2000F02C
S1130C901DFC031CFB60FB68002B2DD0FB680022AD
S1130CA05A60FB6800221A60FB6800229A60FB68A5
S1130CB00022DA60FB6800229A63FB680122DA638F
S1130CC0FB6800221A64FB68012252425A64FB68E2
S1130CD0012252429A64FB681033181C00F058FB3E
S1130CE0FB682433181C00F053FBFB68181C00211C
S1130CF00022002300F00AF8FB68002B01D172B631
S1130D00FEE7FB68181CBD4604B080BD80B588B002
S1130D1000AFF860B9607A603B600023FB61FB6858
S1130D20BB61BB69002B01D172B6FEE7BB68002B27
S1130D3003D1BB691B6C002B01D1012300E000230C
S1130D40002B01D172B6FEE73B68022B03D1BB69CD
S1130D50DB6B012B01D1012300E00023002B01D127
S1130D6072B6FEE7FFF7D0FE031C002B02D17B68AE
S1130D70002B01D1012300E00023002B02D172B625
S1130D80FEE7C04600F092FABB699A6BBB69DB6B65
S1130D909A4202D33B68022B19D1B969BA683B68FD
S1130DA0081C111C1A1C00F06BF9BB695B6A002B50
S1130DB009D0BB692433181CFFF774FD031C012BF5
S1130DC001D100F093FA00F081FA012359E07B6825
S1130DD0002B03D100F07AFA002352E0FB69002BC8
S1130DE006D13B1C1033181CFFF7B8FD0123FB612F
S1130DF000F06CFAFFF770FB00F058FABB695B6C0B
S1130E00013302D1BB6900225A64BB699B6C013374
S1130E1002D1BB6900229A6400F058FA3A1C1032DD
S1130E203B1D101C191CFFF7B1FD031C002B21D125
S1130E30BB69181C00F018FA031C002B13D0BB6903
S1130E401A1C10327B68101C191CFFF7F5FCBB69D7
S1130E50181C00F0A7F9FFF74BFB031C002B90D1E3
S1130E6000F044FA8DE7BB69181C00F09BF9FFF70A
S1130E703FFB86E7BB69181C00F094F9FFF738FBC9
S1130E800023181CBD4608B080BDC04680B58AB09A
S1130E9000AFF860B9607A603B6000237B62FB6856
S1130EA03B623B6A002B01D172B6FEE7BB68002BA4
S1130EB003D13B6A1B6C002B01D1012300E000230A
S1130EC0002B01D172B6FEE7FFF71EFE031C002BB8
S1130ED002D17B68002B01D1012300E00023002B09
S1130EE002D172B6FEE7C04600F0E0F93B6A9B6BA4
S1130EF0002B3DD03B6ADB68FB613A6ABB68101C7F
S1130F00191C00F027F93B68002B1CD13B6A9B6B32
S1130F105A1E3B6A9A633B6A1B68002B04D1FFF795
S1130F20E5FD021C3B6A5A603B6A1B69002B1BD01F
S1130F303B6A1033181CFFF7B5FC031C012B13D1BB
S1130F4000F0D4F910E03B6AFA69DA603B6A5B6A44
S1130F50002B09D03B6A2433181CFFF7A3FC031CA5
S1130F60002B01D000F0C2F900F0B0F9012367E0D2
S1130F707B68002B03D100F0A9F9002360E07B6AB1
S1130F80002B06D13B1C1433181CFFF7E7FC01238C
S1130F907B6200F09BF9FFF79FFA00F087F93B6A48
S1130FA05B6C013302D13B6A00225A643B6A9B6C3E
S1130FB0013302D13B6A00229A6400F087F93A1C9B
S1130FC014323B1D101C191CFFF7E0FC031C002B02
S1130FD02FD13B6A181C00F031F9031C002B21D0DF
S1130FE03B6A1B68002B08D100F060F93B6A5B6820
S1130FF0181CFFF7A5FD00F069F93B6A1A1C24329E
S11310007B68101C191CFFF717FC3B6A181C00F0C6
S1131010C9F8FFF76DFA031C002B00D063E700F05A
S113102065F960E73B6A181C00F0BCF8FFF760FA4A
S113103059E73B6A181C00F0B5F8FFF759FA00238A
S1131040181CBD460AB080BD80B584B000AF78607E
S11310507B68FB60FB68002B01D172B6FEE7FB687E
S11310601B68002B04D0FB681B68181C00F0C4FA32
S1131070FB68181C00F0C0FABD4604B080BDC04631
S113108080B584B000AFF860B9607A60FB681B6C0F
S1131090002B0CD1FB681B68002B53D1FB685B68E9
S11310A0181CFFF7ABFDFB6800225A604AE07B681E
S11310B0002B1BD1FB689968FB681B6CBA68081C81
S11310C0111C1A1C04F046FDFB689A68FB681B6C33
S11310D0D218FB689A60FB689A68FB685B689A425E
S11310E030D3FB681A68FB689A602BE0FB68D96808
S11310F0FB681B6CBA68081C111C1A1C04F02AFD3E
S1131100FB68DA68FB681B6C5B42D218FB68DA6028
S1131110FB68DA68FB681B689A4207D2FB685A6866
S1131120FB681B6C5B42D218FB68DA607B68022B9D
S113113008D1FB689B6B002B04D0FB689B6B5A1E89
S1131140FB689A63FB689B6B5A1CFB689A63BD46F9
S113115004B080BD80B582B000AF786039607B6830
S11311601B68002B1AD07B68DA687B681B6CD2186A
S11311707B68DA607B68DA687B685B689A4203D3D1
S11311807B681A687B68DA607B68DA687B681B6C4A
S11311903968081C111C1A1C04F0DCFCBD4602B0A2
S11311A080BDC04680B582B000AF786000F07EF8A4
S11311B012E07B685B6A002B13D07B682433181C15
S11311C0FFF770FB031C002B01D0FFF72DFC7B689D
S11311D09B6C5A1E7B689A647B689B6C002BE8DCD2
S11311E000E0C0467B68012252429A6400F06EF827
S11311F000F05CF812E07B681B69002B13D07B685D
S11312001033181CFFF74EFB031C002B01D0FFF713
S11312100BFC7B685B6C5A1E7B685A647B685B6C56
S1131220002BE8DC00E0C0467B68012252425A648D
S113123000F04CF8BD4602B080BDC04680B584B015
S113124000AF786000F032F87B689B6B002B02D112
S11312500123FB6001E00023FB6000F037F8FB682A
S1131260181CBD4604B080BD80B584B000AF786062
S113127000F01CF87B689A6B7B68DB6B9A4202D1A6
S11312800123FB6001E00023FB6000F01FF8FB6812
S1131290181CBD4604B080BD80B500AF024B0622C9
S11312A01A60BD4680BDC04610E000E080B500AFC6
S11312B072B6054B1B685A1C034B1A60BFF34F8F61
S11312C0BFF36F8FBD4680BD04E0FF1F80B500AF44
S11312D0054B1B685A1E044B1A60034B1B68002BFA
S11312E000D162B6BD4680BD04E0FF1F80B500AFEB
S11312F0044B802252051A60BFF34F8FBFF36F8FE8
S1131300BD4680BD04ED00E080B500AF72B6FFF7C6
S113131073F9031C002B01D0FFF7E8FF62B6BD464A
S113132080BDC046084B196808681030F0C8A04654
S1131330A946B246BB4680F309882038F0C87146F6
S11313400D2001430847C04610E0FF1FEFF309805A
S11313500E4B1A6820381060F0C044464D4656467D
S11313605F46F0C008B572B6FFF706FA62B60CBC69
S1131370116808681030F0C8A046A946B246BB46BA
S113138080F309882038F0C81847C04610E0FF1FD2
S113139080B582B000AF78607B681A1C08327B6825
S11313A05A607B68012252429A607B681A1C083298
S11313B07B68DA607B681A1C08327B681A617B6878
S11313C000221A60BD4602B080BDC04680B584B01C
S11313D000AF786039607B685B68FB603B68FA68E3
S11313E05A60FB689A683B689A60FB689B683A6835
S11313F05A60FB683A689A603B687A681A617B684D
S11314001B685A1C7B681A60BD4604B080BDC04688
S113141080B584B000AF786039603B681B68BB60FE
S1131420BB68013303D17B681B69FB600CE07B68FC
S11314300833FB6002E0FB685B68FB60FB685B6889
S11314401A68BB689A42F6D9FB685A683B685A60C6
S11314503B685B683A689A603B68FA689A60FB6824
S11314603A685A603B687A681A617B681B685A1C40
S11314707B681A60BD4604B080BDC04680B584B0A8
S113148000AF78607B681B69FB607B685B687A6887
S113149092689A607B689B687A6852685A60FB68B5
S11314A05A687B689A4203D17B689A68FB685A60E1
S11314B07B6800221A61FB681B685A1EFB681A606D
S11314C0FB681B68181CBD4604B080BD80B588B09D
S11314D000AF786000237B61FEF7FEFF404B1B6882
S11314E0002B04D100F0C4F83D4B01221A607B6844
S11314F0002B0DD03B4B1B887A68D3187B607A682D
S11315000723134004D07B680722934308337B608E
S11315107B68002B58D07A68334B9A4254D8334BAB
S1131520BB61324B1B68FB6104E0FB69BB61FB6977
S11315301B68FB61FB695A687B689A4203D2FB69AA
S11315401B68002BF1D1FA69294B9A423CD0BB6944
S11315501A68244B1B88D3187B61FB691A68BB6922
S11315601A60FB695A687B68D21A1E4B1B885B00A1
S11315709A4222D9FA697B68D318FB60FB695A68DE
S11315807B68D21AFB685A60FB697A685A60FB6808
S11315905B68BB60154B3B6102E03B691B683B61C8
S11315A03B691B685A68BB689A42F6D33B691A6860
S11315B0FB681A603B69FA681A600E4B1A68FB698B
S11315C05B68D21A0B4B1A60FEF792FF7B69002B03
S11315D001D104F04BFA7B69181CBD4608B080BDEC
S11315E0ECE8FF1FA06B0000F7070000DCE8FF1F1A
S11315F0E4E8FF1F08E0FF1F80B586B000AF786005
S11316007B683B617B68002B28D0164B1B885B42B0
S11316103A69D3183B613B69FB60FEF75DFFFB68E9
S11316205B68BB60104B7B6102E07B691B687B617C
S11316307B691B685A68BB689A42F6D37B691A684F
S1131640FB681A607B69FA681A60FB685A68074B82
S11316501B68D218054B1A60FEF74AFFBD4606B058
S113166080BDC046A06B0000DCE8FF1F08E0FF1F40
S113167080B582B000AF0E4B072293437B600D4BC5
S11316807A681A600B4B00225A600B4BFF22D2007F
S11316905A60094B00221A607B683B603B68FF225A
S11316A0D2005A603B68044A1A60BD4602B080BD4D
S11316B0E4E0FF1FDCE8FF1FE4E8FF1F80B586B00D
S11316C000AFF860B9607A60FB687B61BB683B611E
S11316D009E03B691A787B691A707B6901337B6185
S11316E03B6901333B617B685A1E9341DBB27A68E4
S11316F0013A7A60002BECD1BD4606B080BDC046ED
S113170080B586B000AFF860B9607A60FB687B6131
S113171006E0BB68DAB27B691A707B6901337B61CE
S11317207B685A1E9341DBB27A68013A7A60002BD7
S1131730EFD1BD4606B080BD80B588B000AFF8607B
S1131740B9607A60FB68FB61BB68BB6100237B61A5
S1131750C0467B685A1E9341DBB27A68013A7A60CC
S1131760002B12D0FB691B781A1CBB691B78D31A97
S11317707B617B695A425341DBB2FA690132FA61F7
S1131780BA690132BA61002BE3D17B69181CBD46EA
S113179008B080BD80B582B000AF7860396002E0E7
S11317A07B6801337B607B681B78002B05D07B68EA
S11317B01B781A1C3B689A42F2D17B681B78181C70
S11317C0BD4602B080BDC04680B582B000AF78602F
S11317D07B68DB68181C03F021FF031C181CBD4642
S11317E002B080BD80B582B000AF78600A1CFB1CDB
S11317F01A707B68002B14D0FB1C1B780C2B10D0A8
S1131800FB1C1B780B2B0CD0FB1C1B78092B08D062
S1131810FB1C1B780F2B04D07B68DB68181C03F0BF
S113182015FFBD4602B080BD80B586B000AF7860BC
S11318303B1C0F3300221A707B681B79002B3CD0B1
S11318407B685B6B7B617B6859787B681A1C3832D8
S11318507B69081C111C1A1C012303F07BFE031C6A
S1131860002B04D03B1C0F3301221A7025E07B6847
S113187000221A717B689B6A7A69D21A7B681B6A98
S11318809A421AD27B68DB783B6113E07B681B6A5F
S11318907A69D3187B617B6859787B681A1C383263
S11318A07B69081C111C1A1C012303F053FE3B69BD
S11318B0013B3B613B69012BE8D83B1C0F331B7890
S11318C0181CBD4606B080BD90B585B000AF7860E9
S11318D039603B1C0F3300221A707B685A6B3B68DB
S11318E09A4225D03C1C0F347B68181CFFF79CFFE0
S11318F0031C23703B1C0F331B78002B18D17B680F
S113190059787B681A1C38323B68081C111C1A1C55
S1131910012303F0FFFD031C002B06D001235B42CF
S11319203B603B1C0F3301221A707B683A685A6390
S11319303B1C0F331B78181CBD4605B090BDC04638
S113194090B585B000AF78603C1C0F347B68181CE0
S1131950FFF76AFF031C23703B1C0F331B78002B1B
S113196000D09BE07B681B78032B00D088E07B6869
S11319705B79012B00D083E07B681A1C383280230A
S11319809B00101C00211A1CFFF7BAFE7A68474B13
S11319905521D1547A68464BAA21D1547A68382308
S11319A05221D1547A6839235221D1547A683A2386
S11319B06121D1547A683B234121D1547A68872329
S11319C09B007221D1547A683A4B7221D1547A68BF
S11319D0394B4121D1547A68384B6121D1547B6809
S11319E05B69D9B27A6888239B00D1547B685B69B0
S11319F09BB21B0A9BB2D9B27A68314BD1547B6833
S1131A005B691B0CD9B27A682E4BD1547B685B6935
S1131A101B0ED9B27A682C4BD1547B681B69D9B29E
S1131A207A6889239B00D1547B681B699BB21B0A8B
S1131A309BB2D9B27A68254BD1547B681B691B0CC5
S1131A40D9B27A68224BD1547B681B691B0ED9B278
S1131A507A68204BD1547B685B6A5A1C7B685A6352
S1131A607B6859787B681A1C38327B685B6B081C6E
S1131A70111C1A1C012303F06DFD7B6800225A71AE
S1131A807B685B78181C0021002203F083FD031C93
S1131A90002B03D03B1C0F3301221A703B1C0F3365
S1131AA01B78181CBD4605B090BDC0463602000028
S1131AB0370200001D0200001E0200001F02000089
S1131AC0210200002202000023020000250200007F
S1131AD0260200002702000080B582B000AF7860C3
S1131AE039603B68023B3B607B68DB699A1E3B685C
S1131AF09A4201D8002306E07B689B783A685A43EF
S1131B007B681B6BD318181CBD4602B080BDC04651
S1131B1080B586B000AF786039603B68012B04D98A
S1131B207B68DA693B689A4202D801237B61A6E0AC
S1131B3001235B427B617B681B78022B4AD0032B19
S1131B4069D0012B00D090E03B683B613B695B08A6
S1131B503A69D3183B617B689A6A3B695B0AD3187C
S1131B607A68101C191CFFF7AFFE031C002B00D071
S1131B707EE03B69DB05DA0D796838238A18D318CF
S1131B801B78FB603B6901333B617B689A6A3B6964
S1131B905B0AD3187A68101C191CFFF795FE031C06
S1131BA0002B67D13B69DB05DA0D796838238A1885
S1131BB0D3181B781B02FA681343FB603A680123AD
S1131BC0134002D0FB681B0902E0FB681B051B0DD8
S1131BD07B6154E07B689A6A3B681B0AD3187A6875
S1131BE0101C191CFFF770FE031C002B44D13B682A
S1131BF05B00DB05DB0D38337A68D318BB60BB6848
S1131C0001331B781B029AB2BB681B7813439BB247
S1131C109BB27B6133E07B689A6A3B68DB09D3182B
S1131C207A68101C191CFFF74FFE031C002B25D1EA
S1131C303B689B00DB05DB0D38337A68D318BB6047
S1131C40BB6803331B781A06BB6802331B781B047A
S1131C501A43BB6801331B781B021A43BB681B7809
S1131C6013431B011B097B6109E001237B6106E02F
S1131C70C04604E0C04602E0C04600E0C0467B69BE
S1131C80181CBD4606B080BD90B589B000AFF860A1
S1131C90B9607A60BB68012B04D9FB68DA69BB6858
S1131CA09A4204D83B1C1F3302221A7006E1FB68D7
S1131CB01B78022B00D17DE0032B00D1A5E0012B82
S1131CC000D0EFE0BB68BB61BB695B08BA69D3189D
S1131CD0BB61FB689A6ABB695B0AD3183C1C1F345E
S1131CE0FA68101C191CFFF7EFFD031C23703B1C42
S1131CF01F331B78002B00D0D9E0BB69DB05DB0D5B
S1131D003833FA68D3187B61BB690133BB61BA68A5
S1131D10012313400ED07B691B78DBB21A1C0F23FE
S1131D201340DAB27B68DBB21B01DBB21343DBB2D4
S1131D30DBB201E07B68DBB27A691370FB680122D5
S1131D401A71FB689A6ABB695B0AD3183C1C1F347E
S1131D50FA68101C191CFFF7B7FD031C23703B1C09
S1131D601F331B78002B00D0A3E0BB69DB05DB0D20
S1131D703833FA68D3187B61BA680123134003D05F
S1131D807B681B09DBB20FE07B691B78DBB20F2297
S1131D909343DAB27B681B0ADBB2191C0F230B4096
S1131DA0DBB21343DBB2DBB27A691370FB68012246
S1131DB01A7183E0FB689A6ABB681B0AD3183C1C3F
S1131DC01F34FA68101C191CFFF77EFD031C2370D6
S1131DD03B1C1F331B78002B6DD1BB685B00DB05FC
S1131DE0DB0D3833FA68D3187B617B68DAB27B6920
S1131DF01A707B6901337A6892B2120A92B2D2B233
S1131E001A70FB6801221A7158E0FB689A6ABB6871
S1131E10DB09D3183C1C1F34FA68101C191CFFF78B
S1131E2053FD031C23703B1C1F331B78002B44D130
S1131E30BB689B00DB05DB0D3833FA68D3187B6184
S1131E407B6903331B781A067B6902331B781B04F6
S1131E501A437B6901331B781B021A437B691B7885
S1131E6013431B0F1B077A6813437B607B68DAB24A
S1131E707B691A707B6901337A6892B2120A92B252
S1131E80D2B21A707B6902337A68120CD2B21A7019
S1131E907B6903337A68120ED2B21A70FB6801228E
S1131EA01A710BE03B1C1F3302221A7006E0C04675
S1131EB004E0C04602E0C04600E0C0463B1C1F33BD
S1131EC01B78181CBD4609B090BDC04690B585B0BE
S1131ED000AF786039603B68012B04D97B68DA690C
S1131EE03B689A4204D83B1C0F3302221A704AE022
S1131EF03B1C0F3300221A703CE07A683B68101CCC
S1131F00191CFFF705FE031CBB60BB68002B37D010
S1131F10BB68012B04D13B1C0F3302221A7032E040
S1131F20BB68013304D13B1C0F3301221A702AE031
S1131F303C1C0F347A683B68101C191C0022FFF704
S1131F40A3FE031C23703B1C0F331B78002B19D1F9
S1131F507B685B6901330BD07B685B695A1C7B68C7
S1131F605A617B685B7901221343DAB27B685A7148
S1131F70BB683B607B68DA693B689A42BDD802E083
S1131F80C04600E0C0463B1C0F331B78181CBD46FE
S1131F9005B090BD90B587B000AF786039603B68FC
S1131FA0002B0DD17B681B693B613B69002B04D07E
S1131FB07B68DA693B699A421DD801233B611AE0C8
S1131FC07A683B68101C191CFFF7A2FD031CBB6058
S1131FD0BB68012B01D801237FE0BB68013301D129
S1131FE0BB687AE07B68DA69BB689A4201D9BB684E
S1131FF073E03B683B613B697B6100E0C0467B6901
S113200001337B617B68DA697B699A4207D80223D2
S11320107B617A693B699A4201D900235DE07A6861
S11320207B69101C191CFFF773FD031CBB60BB68A4
S1132030002B0DD0BB68013302D0BB68012B01D14A
S1132040BB684AE07A693B699A42D7D1002344E0ED
S1132050C0463C1C0F3479687A69224B081C111C59
S11320601A1CFFF711FE031C23703B1C0F331B7853
S1132070002B0ED13B68002B0BD03C1C0F3479682D
S11320803A687B69081C111C1A1CFFF7FDFD031C30
S113209023703B1C0F331B78002B13D17B687A69A8
S11320A01A617B685B69013316D07B685B695A1ED1
S11320B07B685A617B685B7901221343DAB27B68DF
S11320C05A7109E03B1C0F331B78012B02D1012309
S11320D05B4200E001237B617B69181CBD4607B0AD
S11320E090BDC046FFFFFF0F80B586B000AF78609B
S11320F039607B685B6A04333B613B685A0A7B68DE
S11321001B689B78101C191CFEF796F9031C7B6155
S11321103B691B68FB603B6904333B61FB68002B34
S113212001D1002310E07A69FB689A4207D37A69E7
S1132130FB68D31A7B613B6904333B61E8E7C04623
S11321403B691A687B69D318181CBD4606B080BD6C
S113215080B586B000AF786039603B689AB27B681E
S1132160DA807B689B687B617B69012B05D07B6887
S11321701B68DA697B699A4201D8022365E07B69AE
S1132180002B08D17B681B681B78032B03D17B6869
S11321901B68DB6A7B617B69002B0DD17B681B6844
S11321A01B891A1C3B689A4201D802234DE07B68C4
S11321B01B68DB6A3B612FE07B681B689B781B0113
S11321C0FB601CE07B681A687B69101C191CFFF714
S11321D09FFC031C7B617B69013301D1012334E043
S11321E07B69012B05D97B681B68DA697B699A4294
S11321F001D8022329E03A68FB68D31A3B603A68A5
S1132200FB689A42DED27B681A687B69101C191C31
S1132210FFF762FC031C3B617B687A69DA603B6907
S1132220002B01D1022310E03B681A093B69D21844
S11322307B681A617B681A6839680F230B405B015D
S11322403833D2187B685A610023181CBD4606B087
S113225080BDC04690B587B000AF786039607B68B8
S1132260DB880133FB60FB681B041B0C03D07B6819
S11322701B69002B01D10423BCE0FA680F2313402F
S113228000D0A8E07B681B695A1C7B681A617B68D4
S1132290DB68002B09D17B681B681B891A1CFB684F
S11322A09A4200D997E00423A4E0FB681A097B68EA
S11322B01B689B78013B134000D08CE07B681A6854
S11322C07B68DB68101C191CFFF722FC031C7B6174
S11322D07B69012B01D802238CE07B69013301D196
S11322E0012387E07B681B68DA697B699A4265D8B9
S11322F03B68002B01D104237CE07B681A687B686F
S1132300DB68101C191CFFF745FE031C7B617B690D
S1132310002B01D107236DE07B69012B01D102233E
S113232068E07B69013301D1012363E07B681B68AA
S1132330181CFFF779FA031C002B01D0012359E084
S11323407B681B681A1C383280239B00101C0021F8
S11323501A1CFFF7D5F97B681C687B681A687B69CF
S1132360101C191CFFF7B8FB031C636300233B61BB
S113237015E07B681B6801221A717B681B68181CB6
S1132380FFF752FA031C002B01D0012332E07B68D3
S11323901B685A6B01325A633B6901333B617B68AA
S11323A01B689B781A1C3B699A42E2D87B681B68BD
S11323B07A681268516B3A698A1A5A637B687A6937
S11323C0DA607B681A687B69101C191CFFF784FBB0
S11323D0021C7B681A61FB689AB27B68DA807B68AE
S11323E01A68F9680F230B405B013833D2187B68F5
S11323F05A610023181CBD4607B090BD90B585B046
S113240000AF786039603C1C0F347B68181C0021D5
S1132410FFF79EFE031C23703B1C0F331B78002B1D
S113242036D10023BB607B681A687B681B693C1C3F
S11324300F34101C191CFFF747FA031C23703B1CB4
S11324400F331B78002B22D17B685B691B78E52B4B
S113245004D07B685B691B78002B07D1BB68013310
S1132460BB60BA683B689A4202D111E00023BB60AA
S11324703C1C0F347B68181C0121FFF7EBFE031C86
S113248023703B1C0F331B78002BCCD000E0C046DC
S11324903B1C0F331B78042B03D13B1C0F33072247
S11324A01A703B1C0F331B78181CBD4605B090BD39
S11324B080B584B000AF786039603B681B331B780B
S11324C01B029AB23B681A331B7813439BB29BB22C
S11324D0FB607B681B78032B0ED13B6815331B789C
S11324E01B029AB23B6814331B7813439BB29BB212
S11324F01B04FA681343FB60FB68181CBD4604B058
S113250080BDC04680B582B000AF786039607B681A
S11325101A333A68D2B21A707B681B333A6892B2A3
S1132520120A92B2D2B21A707B6814333A68120C4F
S1132530D2B21A707B6815333A68120C92B2120A3E
S113254092B2D2B21A70BD4602B080BD90B587B0C7
S113255000AF78603C1C17347B68181C0021FFF71F
S1132560F7FD031C23703B1C17331B78002B03D08F
S11325703B1C17331B7849E07B681A687B681B692E
S11325803C1C1734101C191CFFF79EF9031C237004
S11325903B1C17331B78002B32D17B685B693B6192
S11325A03B1C0F333A6912781A703B1C0F331B78AB
S11325B0002B04D13B1C173304221A7023E03B691F
S11325C00B331B781A1C082313400AD17B689B69C0
S11325D03A69101C191C0B22FFF7AEF8031C002BE0
S11325E010D03C1C17347B68181C0021FFF732FE06
S11325F0031C23703B1C17331B78002BBCD002E058
S1132600C04600E0C0463B1C17331B78181CBD466F
S113261007B090BD90B585B000AF78603C1C0F3416
S11326207B68181C0121FFF7E9FE031C23703B1C87
S11326300F331B78002B24D17B681A687B681B69D5
S11326403C1C0F34101C191CFFF73EF9031C2370AB
S11326503B1C0F331B78002B13D17B685B69181C60
S113266000212022FFF74CF87B685A697B689B693C
S1132670101C191C0B22FFF721F87B681B68012230
S11326801A713B1C0F331B78181CBD4605B090BD56
S113269080B588B000AF786039603B681B68FB6028
S11326A002E0FB680133FB60FB681B782F2BF8D03A
S11326B0FB681B785C2BF4D07B689B69BB60BB68B0
S11326C0181C20210B22FFF71BF83B1C1F33002290
S11326D01A7000233B613B697B610823BB61FA6884
S11326E07B69D3181B782E2B40D1FA687B69D218EA
S11326F03B1C1E3312781A707B6901337B613B1CCF
S11327001E331B782E2B0DD17B69022B0AD8BA6895
S11327103B69D3183A1C1E3212781A703B69013394
S11327203B61E2E73B1C1E331B782F2B0BD03B1C79
S11327301E331B785C2B06D03B1C1E331B78202BCE
S113274001D90623F5E0FA687B69D2183B681A6060
S1132750BB681A1C0B323B1C1E331B78202B01D880
S1132760242300E0202313700023E2E0FA687B694D
S1132770D2183B1C1E3312781A707B6901337B61BB
S11327803B1C1E331B78202B00D887E03B1C1E33D8
S11327901B782F2B00D181E03B1C1E331B785C2B54
S11327A000D17BE03B1C1E331B782E2B03D03A69EF
S11327B0BB699A4216D3BB69082B04D13B1C1E3358
S11327C01B782E2B01D00623B3E008233B610B2397
S11327D0BB613B1C1F333A1C1F32127892001A70E3
S11327E0C046C3E73B1C1E331B785BB2002B11DAD7
S11327F03B1C1F333A1C1F32127803210A431A7000
S11328003B1C1E331B781A1C803A3B1C1E334B495D
S11328108A5C1A703B1C1E331B78494A101C191C15
S1132820FEF7B8FF031C002B01D0062381E03B1CFC
S11328301E331B78402B0DD93B1C1E331B785A2B9F
S113284008D83B1C1F333A1C1F32127802210A435A
S11328501A7018E03B1C1E331B78602B13D93B1CE9
S11328601E331B787A2B0ED83B1C1F333A1C1F32A5
S1132870127801210A431A703B1C1E333A1C1E3283
S11328801278203A1A70BA683B69D3183A1C1E327F
S113289012781A703B6901333B6167E7FA687B6918
S11328A0D2183B681A603B1C1E331B78202B01D8BE
S11328B0042300E000233A1C1E3213703B69002BF2
S11328C001D1062335E0BB681B78E52B02D1BB6838
S11328D005221A70BB69082B06D13B1C1F333A1C16
S11328E01F32127892001A703B1C1F331A7803238C
S11328F01340012B07D13B1C1E333A1C1E321278A5
S113290010210A431A703B1C1F331A780C231340FE
S1132910042B07D13B1C1E333A1C1E3212780821AB
S11329200A431A70BB680B333A1C1E3212781A70B1
S11329300023181CBD4608B080BDC046A46B00002F
S1132940406B000090B585B000AF786039603B689B
S11329501B782F2B03D03B681B785C2B06D13B687C
S113296001333B607B6800229A6004E07B681B684B
S11329709A697B689A603B681B781F2B0CD83C1CB7
S11329800F347B68181C0021FFF7E2FB031C237043
S11329907B6800225A616FE03C1C0F347A683B1C50
S11329A0101C191CFFF774FE031C23703B1C0F330F
S11329B01B78002B5BD13C1C0F347B68181CFFF781
S11329C0C5FD031C23707B689A693B1C0E33D27AC5
S11329D01A703B1C0F331B78002B26D03B1C0F3383
S11329E01B78042B45D13B1C0E331A78202313404B
S11329F010D07B6800229A607B6800225A613B1CDD
S1132A000E331A78042313402FD03B1C0F330022BB
S1132A101A702EE03B1C0E331A780423134028D17D
S1132A203B1C0F3305221A7023E03B1C0E331A782B
S1132A30042313401FD17B685B69BB60BB680B3305
S1132A401B781A1C1023134004D13B1C0F3305229E
S1132A501A7011E07B681A68BB68101C191CFFF718
S1132A6027FD021C7B689A6096E7C04694E7C0463F
S1132A7002E0C04600E0C0463B1C0F331B78181C24
S1132A80BD4605B090BDC04680B586B000AF786045
S1132A9001235B423B617B681B68002B32D07B685F
S1132AA01B687B6102E07B6901337B617B691B7876
S1132AB0202B03D97B691B783A2BF4D17B691B78D3
S1132AC03A2B1DD17B681B68FB60FB681B78303B8D
S1132AD0BB60FB680133FB60BB68092B0ED8FA6846
S1132AE07B699A420AD1BB68002B07D1BB683B6162
S1132AF07B6901337B617B687A691A603B6902E018
S1132B0000233B613B69181CBD4606B080BDC0462E
S1132B1080B582B000AF786039607B6800221A719A
S1132B207B68012252425A637A683B68101C191C64
S1132B30FEF7CAFE031C002B01D0032342E07A688F
S1132B40224BD35C1B029AB27968214BCB5C1343B2
S1132B509BB21AB21F4B9A4201D0022332E07A6828
S1132B607123D35C1A0679687023CB5C1B041A4367
S1132B7079686F23CB5C1B021A4379686E23CB5CA4
S1132B8013431B021A0A144B9A4201D1002319E081
S1132B907A688D23D35C1A0679688C23CB5C1B047A
S1132BA01A4379688B23CB5C1B021A4379688A2306
S1132BB0CB5C13431B021A0A074B9A4201D1002330
S1132BC000E00123181CBD4602B080BD370200009E
S1132BD03602000055AAFFFF4641540090B597B055
S1132BE000AFF860B960FB1D1A70FB6800221A6020
S1132BF0BB68181CFFF748FF031CFB63FB6B002B2F
S1132C0001DA0B23B3E2CD4BFA6B9200D358BB63CA
S1132C10BB6B002B01D10C23A9E2BB6B181CFEF784
S1132C20D3FD031C002B01D10F23A0E2FB68BA6B78
S1132C301A60BB6B1B78002B1CD0BB6B5B783C1CF5
S1132C403734181C02F04EFC031C23703B1C373332
S1132C501A78012313400DD1FB1D1B78002B07D0DC
S1132C603B1C37331A780423134001D00A237EE235
S1132C7000237CE2BB6B00221A70FB6BDAB2BB6BE5
S1132C805A70BB6B5B783C1C3734181C02F012FC86
S1132C90031C23703B1C37331A780123134001D0E3
S1132CA0032364E2FB1D1B78002B07D03B1C373346
S1132CB01A780423134001D00A2358E200233B6509
S1132CC03C1C5734BA6B3B6D101C191CFFF720FFDA
S1132CD0031C23703B1C57331B78012B56D1002354
S1132CE03B6428E03B6C1B01BF33FF333833BA6BC2
S1132CF0D3183B633B6B04331B78002B12D03B6B24
S1132D000B331B781A063B6B0A331B781B041A43DC
S1132D103B6B09331B781B021A433B6B08331B784C
S1132D20134300E000233A1C1432396C89008B50A1
S1132D303B6C01333B643B6C032BD3D900233B64D2
S1132D403B6C002B02D03B6C013B3B643B1C1433BB
S1132D503A6C9200D3583B653B6D002B07D0BA6B9D
S1132D603B6D101C191CFFF7D3FE031C00E002236B
S1132D703A1C573213703B1C57331B78002B05D079
S1132D803B6C01333B643B6C032BDFD93B1C573357
S1132D901B78032B01D10123E9E13B1C57331B783A
S1132DA0002B01D00D23E2E1BA6B4423D35C1B0258
S1132DB09AB2B96B4323CB5C13439BB21AB2802300
S1132DC09B009A4201D00D23D1E1BA6B4F23D35C0F
S1132DD01B029AB2B96B4E23CB5C13439BB29BB2DA
S1132DE0FB64FB6C002B12D1BA6B5F23D35C1A0615
S1132DF0B96B5E23CB5C1B041A43B96B5D23CB5CBC
S1132E001B021A43B96B5C23CB5C1343FB64BB6B9F
S1132E10FA6C1A62BA6B4823D25CBB6BDA70BB6B78
S1132E20DB78012B05D0BB6BDB78022B01D00D23A3
S1132E309DE1BB6BDB781A1CFB6C5343FB64BA6BE0
S1132E404523D25CBB6B9A70BB6B9B78002B06D07E
S1132E50BB6B9B78BA6B9278013A134001D00D2377
S1132E6085E1BA6B4A23D35C1B029AB2B96B49233E
S1132E70CB5C13439BB29AB2BB6B1A81BB6B1A89AE
S1132E800F2313409BB2002B01D00D236FE1BA6BCB
S1132E904C23D35C1B029AB2B96B4B23CB5C134318
S1132EA09BB29BB2BB64BB6C002B12D1BA6B5B238D
S1132EB0D35C1A06B96B5A23CB5C1B041A43B96B57
S1132EC05923CB5C1B021A43B96B5823CB5C1343C5
S1132ED0BB64BA6B4723D35C1B029AB2B96B46231B
S1132EE0CB5C13439AB23B1C2E331A803B1C2E330B
S1132EF01B88002B01D10D2339E13B1C2E331A888A
S1132F00FB6CD218BB6B1B891B099BB2D318BB6229
S1132F10BA6CBB6A9A4201D20D2328E1BA6CBB6A2F
S1132F20D21ABB6B9B78101C191CFDF785FA031C85
S1132F307B627B6A002B03D10D2318E1F0E8FF1FAD
S1132F403B1C573301221A707A6A8B4B9A4203D97D
S1132F503B1C573302221A707A6A884B9A4203D96F
S1132F603B1C573303221A707B6A9A1CBB6BDA61D1
S1132F70BB6B3A6D5A623B1C2E331A883B6DD218D8
S1132F80BB6B9A623A6DBB6AD218BB6B1A633B1C6B
S1132F9057331B78032B1ED1BB6B1B89002B01D02D
S1132FA00D23E4E0BA6B6723D35C1A06B96B66237E
S1132FB0CB5C1B041A43B96B6523CB5C1B021A431D
S1132FC0B96B6423CB5C1A43BB6BDA62BB6BDB6902
S1132FD09B007B6420E0BB6B1B89002B01D10D237C
S1132FE0C5E0BB6B9A6AFB6CD218BB6BDA623B1C04
S1132FF057331B78022B03D1BB6BDB695B000AE000
S1133000BB6BDA69131C5B009B185A08BB6BD9694C
S113301001230B40D3187B64BB6B1A6A7B6C584941
S11330205B185B0A9A4201D20D23A0E0BB6B01221C
S113303052425A61BB6B5A69BB6B1A61BB6B8022EB
S11330405A713B1C57331B78032B00D07CE0BA6BBE
S11330506923D35C1B029AB2B96B6823CB5C13431C
S11330609BB21BB2012B6FD13B6D0133BA6B101CA9
S1133070191CFEF729FC031C002B65D1BB6B002235
S11330805A71BA6B3F4BD35C1B029AB2B96B3E4B7D
S1133090CB5C13439BB21AB23C4B9A4254D1BA6BE9
S11330A03B23D35C1A06B96B3A23CB5C1B041A434B
S11330B0B96B3923CB5C1B021A43B96B3823CB5C45
S11330C01A43334B9A423FD1BA6B324BD35C1A0644
S11330D0B96B314BCB5C1B041A43B96B2F4BCB5CE4
S11330E01B021A43B96B87239B00CB5C1A432C4BFE
S11330F09A4229D1BA6B2B4BD35C1A06B96B2A4B73
S1133100CB5C1B041A43B96B284BCB5C1B021A43E0
S1133110B96B88239B00CB5C1A43BB6B5A61BA6BB7
S1133120234BD35C1A06B96B224BCB5C1B041A43AA
S1133130B96B214BCB5C1B021A43B96B89239B00EF
S1133140CB5C1A43BB6B1A61BB6B3A1C57321278C7
S11331501A701A4B1B8801339AB2184B1A80174BFA
S11331601A88BB6BDA80BB6B00229A610023181C9F
S1133170BD4617B090BDC046F50F0000F5FF000036
S1133180FF010000370200003602000055AAFFFFCD
S1133190525261411F0200001E0200001D02000085
S11331A07272416123020000220200002102000029
S11331B0270200002602000025020000F4E8FF1F99
S11331C080B584B000AF78607B68FB60FB68002B3F
S11331D00FD0FB681B68002B0BD0FB681B681B78A7
S11331E0002B06D0FB681B68DA88FB689B889A4230
S11331F001D0092317E0FB681B68181CFEF7E4FAEA
S1133200031C002B01D10F230DE0FB681B685B78C6
S1133210181C02F067F9031C1A1C0123134001D087
S1133220032300E00023181CBD4604B080BDC04643
S113323090B589B000AFF860B960FB1D1A70BB6827
S11332403B613B1C1033181CFFF71EFC031CFB6185
S1133250FB69002B01DA0B234DE0294BFA6992003C
S1133260D358BB61BB69002B0CD0BB69DB68181C4D
S113327002F0C6F9031C002B01D102233BE0BB6919
S113328000221A70FB68002B0FD0FB6800221A7012
S1133290FB69DAB2FB680C33101C191C02F09AF9B2
S11332A0031C002B01D1022325E0F968144BFA69B1
S11332B09200D150FB68002B03D0FB1D1B78012B1F
S11332C001D0002317E03C1C17343A1C0C323B1C81
S11332D00833101C191C0022FFF780FC031C237008
S11332E0FA683B1C17331B78101C191CFEF77AFA7A
S11332F03B1C17331B78181CBD4609B090BDC04653
S1133300F0E8FF1F90B593B000AFF860B960FB1D03
S11333101A70FB68002B01D109237BE1FB680022B2
S11333201A60FB1DFA1D11781F220A401A70FB1D3A
S11333301B7801229343DBB23C1C4734391C1C31FB
S11333403A1C0832081C111C1A1CFFF747FC031C0A
S113335023703B1C47331B78002B00D04DE13B1CF2
S11333601C333A1C10329A61BB683C1C47343A1C2B
S11333701C32101C191CFFF7E5FA031C23703B1CBC
S11333801C335B693B643B1C47331B78002B06D121
S11333903B6C002B03D13B1C473306221A70FB1DE8
S11333A01A781C23134000D1AFE03B1C47331B7831
S11333B0002B18D03B1C47331B78042B08D13C1C32
S11333C047343B1C1C33181CFFF724F9031C2370DF
S11333D0FB1DFA1D127808210A431A703B1C1C338A
S11333E05B693B6414E03B6C0B331B781A1C1123A0
S11333F0134004D03B1C473307221A7008E0FB1D1E
S11334001A780423134003D03B1C473308221A7054
S11334103B1C47331B78002B00D097E0FB1D1A7828
S11334200823134000D191E002F01EF9031CFB6352
S11334303B6C0E33FA6BD2B21A703B6C0F33FA6BDF
S113344092B2120A92B2D2B21A703B6C1033FA6B77
S1133450120CD2B21A703B6C1133FA6B120ED2B248
S11334601A703B6C0B3300221A703B6C1C33002225
S11334701A703B6C1D3300221A703B6C1E33002201
S11334801A703B6C1F3300221A703B1C1C331A68E1
S11334903B6C101C191CFFF70BF8031CBB633B6C43
S11334A0181C0021FFF72EF83B1C1C331B6801225B
S11334B01A71BB6B002B49D03B1C1C331B685B6B24
S11334C0FB633B1C1C331A683C1C4734BB6B101C4D
S11334D0191CFEF7FBFC031C23703B1C47331B78B1
S11334E0002B33D13B1C1C331B68BA6B013A1A61A5
S11334F03B1C1C331A683C1C4734FB6B101C191C06
S1133500FEF7E2F9031C237020E03B1C47331B78D1
S1133510002B1BD13B6C0B331B781A1C102313405C
S113352004D03B1C473304221A700FE0FB1D1A78A9
S1133530022313400AD03B6C0B331B781A1C012363
S1133540134003D03B1C473307221A703B1C4733FC
S11335501B78002B13D1FB1D1A780823134005D0C8
S1133560FB1DFA1D127820210A431A703B1C1C33E0
S11335701B685A6BFB68DA61FB683A6C1A623B1C85
S113358047331B78002B38D1FB68FA1D12789A71E7
S1133590FB680022DA713B1C1C331A683B6C101C5C
S11335A0191CFEF785FF021CFB681A613B6C1F3374
S11335B01B781A063B6C1E331B781B041A433B6CA6
S11335C01D331B781B021A433B6C1C331B781A43B4
S11335D0FB68DA60FB6800229A60FB6800229A614B
S11335E0FB6800225A623B1C1C331A68FB681A6091
S11335F0FB681B68DA88FB689A803B1C1C331A68DA
S11336003B1C47331B78101C191CFEF7EBF83B1CC2
S113361047331B78181CBD4613B090BD90B58BB0D2
S113362000AFF860B9607A603B60BB68BB613B681F
S113363000221A603C1C1734FB68181CFFF7C0FDFD
S1133640031C23703B1C17331B78002B0CD0FB6826
S11336501A683B1C17331B78101C191CFEF7C2F8A0
S11336603B1C17331B78ACE1FB68DB79002B0AD0D9
S1133670FB681A68FB68DB79101C191CFEF7B2F8AA
S1133680FB68DB799DE1FB689B791A1C02231340DC
S113369007D1FB681B68181C0721FEF7A3F8072352
S11336A08FE1FB689A687B68D218FB689B689A4232
S11336B000D368E100237B6065E1FB689B68DB0560
S11336C0DB0D00D028E1FB689B685B0ADAB2FB687B
S11336D01B689B78013BD9B23B1C16330A401A7015
S11336E03B1C16331B78002B54D1FB689B68002BC2
S11336F00ED1FB681B697B627B6A002B20D1FB68BF
S11337001B68181C0021FEF745FC031C7B6217E0B4
S1133710FB685B6A002B09D0FB689B68FA68101C85
S1133720191CFEF7E1FC031C7B6209E0FB681A68C4
S1133730FB685B69101C191CFEF72CFC031C7B62E4
S11337407B6A002B00D123E17B6A012B0AD1FB6841
S11337500222DA71FB681B68181C0221FEF742F88A
S113376002232EE17B6A01330AD1FB680122DA715C
S1133770FB681B68181C0121FEF734F8012320E1C3
S1133780FB687A6A5A61FB681B69002B02D1FB68EB
S11337907A6A1A61FB689B791A1C4023134022D071
S11337A0FB681B685978FB681A1C2832FB689B6904
S11337B0081C111C1A1C012301F0CCFE031C002B55
S11337C00AD0FB680122DA71FB681B68181C01210E
S11337D0FEF708F80123F4E0FB689B794022934349
S11337E0DAB2FB689A71FB681A68FB685B69101CA3
S11337F0191CFEF771F9031C3B613B69002B0AD1CC
S1133800FB680222DA71FB681B68181C0221FDF7B1
S1133810E9FF0223D5E03B1C16331B783A69D31821
S11338203B617B685B0AFB61FB69002B4BD03B1C53
S113383016331A78FB69D218FB681B689B789A4286
S113384008D9FB681B689B781A1C3B1C16331B7831
S1133850D31AFB61FB681B685878B9693A69FB693C
S113386001F078FE031C002B0AD0FB680122DA71F8
S1133870FB681B68181C0121FDF7B4FF0123A0E0BD
S1133880FB689A693B69D21AFB699A4217D2FB68B2
S1133890191C2831FB689A693B69D31A5B02BA691F
S11338A0D21880239B00081C111C1A1CFDF706FF6C
S11338B0FB689B7940229343DAB2FB689A71FB69F7
S11338C05B023B624BE0FB689A693B699A4220D0F9
S11338D0FB689A68FB68DB689A421AD2FB681B682B
S11338E05978FB681A1C28323B69081C111C1A1CE5
S11338F0012301F00FFE031C002B0AD0FB680122F8
S1133900DA71FB681B68181C0121FDF76BFF0123AA
S113391057E0FB683A699A61FB689B68DB05DB0D3D
S113392080229200D31A3B623A6A7B689A4201D998
S11339307B683B62FB689B68DB05DB0D2833FA6818
S1133940D118BA693B6A081C111C1A1CFDF7B6FE93
S1133950FB689B7940221343DAB2FB689A71BA6917
S11339603B6AD318BB61FB689A683B6AD218FB6850
S11339709A603B681A683B6AD2183B681A607A6896
S11339803B6AD31A7B607B68002B00D095E600E08D
S1133990C046FB689A68FB68DB689A4203D9FB68F7
S11339A09A68FB68DA60FB689B7920221343DAB2D9
S11339B0FB689A71FB681B68181C0021FDF712FF55
S11339C00023181CBD460BB090BDC04690B587B00F
S11339D000AF78603C1C17347B68181CFFF7F0FBC1
S11339E0031C23703B1C17331B78002B00D0AAE068
S11339F07B689B791A1C2023134000D1A3E07B68C9
S1133A009B791A1C402313401FD07B681B6859788C
S1133A107B681A1C28327B689B69081C111C1A1CC1
S1133A20012301F097FD031C002B07D07B681B6862
S1133A30181C0121FDF7D6FE012390E07B689B79D9
S1133A4040229343DAB27B689A717B681A687B6878
S1133A50DB693C1C1734101C191CFDF735FF031CD3
S1133A6023703B1C17331B78002B6CD17B681B6ABB
S1133A703B613B690B333A690B32127820210A43CC
S1133A80D2B21A703B691A1C1C327B68DB68DBB249
S1133A9013703B691A1C1D327B68DB689BB21B0ADE
S1133AA09BB2DBB213703B691A1C1E327B68DB6865
S1133AB01B0CDBB213703B691A1C1F327B68DB687A
S1133AC01B0EDBB213707B681B693A69101C191C4E
S1133AD0FEF718FD01F0C8FD031CFB603B691633BB
S1133AE0FA68D2B21A703B691733FA6892B2120AB2
S1133AF092B2D2B21A703B691833FA68120CD2B27D
S1133B001A703B691933FA68120ED2B21A703B6903
S1133B10123300221A703B69133300221A707B6837
S1133B209B7920229343DAB27B689A717B681B6885
S1133B3001221A717B681B683C1C1734181CFDF7A2
S1133B40FFFE031C23707B681A683B1C17331B7829
S1133B50101C191CFDF746FE3B1C17331B78181C60
S1133B60BD4607B090BDC04690B585B000AF786043
S1133B703C1C0F347B68181CFFF728FF031C2370C0
S1133B803B1C0F331B78002B17D13C1C0F347B6874
S1133B90181CFFF715FB031C23703B1C0F331B7809
S1133BA0002B0AD17B681B68BB607B6800221A600B
S1133BB0BB68181C0021FDF715FE3B1C0F331B7856
S1133BC0181CBD4605B090BDC046C046C0467047EF
S1133BD00020C046C046C046C046C0460130092841
S1133BE0F7D9C0467047C04680B582B000AF021C0A
S1133BF0BB1D1A8006E0FFF7EBFFBB1DBA1D128840
S1133C00643A1A80BB1D1B88642BF4D806E0FFF7C6
S1133C10DBFFBB1DBA1D12880A3A1A80BB1D1B8824
S1133C200A2BF4D8BD4602B080BDC04680B582B030
S1133C3000AF786007E00A4B181CFFF7D5FF7B68DC
S1133C40084A9B187B607A68054B9A42F3D87B68D4
S1133C509BB2181CFFF7C8FFBD4602B080BDC0462A
S1133C6060EA0000A015FFFF80B584B000AF021C1D
S1133C70BB1D1A80094BFB6008E0FB68181CFFF7AA
S1133C80D5FFBB1DBA1D1288013A1A80BB1D1B88C3
S1133C90002BF2D1BD4604B080BDC04680BB0000FD
S1133CA090B585B000AF041C081C111C1A1CFB1D28
S1133CB01C70BB1D18707B1D19703B1D1A703B1DB9
S1133CC01B78632B0BD87B1D1B783B2B07D8BB1DA4
S1133CD01B783B2B03D8FB1D1B78172B01D9022320
S1133CE01EE03B1C0F33EFF3108072B61870FB1DFF
S1133CF01B780D4A5A43BB1D1B780C494B43D21801
S1133D007B1D1B7864214B43D2183B1D1B78D218B2
S1133D10074B1A603B1C0F33187880F3108800237C
S1133D20181CBD4605B090BD407E0500701700000C
S1133D30FCE8FF1F80B584B000AF78603B1C0B33F8
S1133D40EFF3108072B61870244B1B68FB603B1CA9
S1133D500B33187880F31088FB68181C2049FCF793
S1133D606BFB031CDAB27B681A70FB68181C1C49D5
S1133D70FCF7A6FB0B1CFB60FB68181C1949FCF73D
S1133D805BFB031CDAB27B685A70FB68181C15498C
S1133D90FCF796FB0B1CFB60FB68181C6421FCF70A
S1133DA04BFB031CDAB27B689A70FB68181C642115
S1133DB0FCF786FB0B1CFB60FA68131C9B009B182A
S1133DC05B00181C0A21FCF737FB031CDAB27B6882
S1133DD0DA700023181CBD4604B080BDFCE8FF1F48
S1133DE0407E05007017000080B584B000AFBB1D95
S1133DF018807B1D19703B1D1A70BB1D1A88254B3A
S1133E009A4214D9BB1D1A88234B9A420FD87B1DA2
S1133E101B780C2B0BD87B1D1B78002B07D03B1D6C
S1133E201B781F2B03D83B1D1B78002B01D10223C9
S1133E302CE0BB1D1A880323134001D0174B00E06C
S1133E40174BFB607B1D1B78013BFA68D3181B786A
S1133E503A1D12789A4201D9022317E03B1C0B3316
S1133E60EFF3108072B618700E4B3A1D12781A7068
S1133E700D4B7A1D12781A700C4BBA1D12881A80D9
S1133E803B1C0B33187880F310880023181CBD46A4
S1133E9004B080BDCD07000033080000246C00008E
S1133EA0306C0000F6E8FF1FF7E8FF1FF8E8FF1F7B
S1133EB080B584B000AF78603B1C0F33EFF3108003
S1133EC072B618700A4B1A887B681A80094B1A78E4
S1133ED07B689A70084B1A787B68DA703B1C0F3346
S1133EE0187880F310880023181CBD4604B080BDE8
S1133EF0F8E8FF1FF7E8FF1FF6E8FF1F80B500AFE3
S1133F0003200F2138220023FFF7CAFE034B181C9D
S1133F100B211722FFF768FFBD4680BDDE070000B6
S1133F2080B584B000AF021CBB1D1A803B1C0F334C
S1133F3000221A70BB1D00229B5E002B02D1BB1D08
S1133F4001221A803B1C0E33EFF3108072B61870F6
S1133F5006E03B1C0F333A1C0F32127801321A7000
S1133F603B1C0F331B78174AD35C002B04D13B1C3A
S1133F700F331B78012BECD93B1C0F331B78012B1F
S1133F800DD83B1C0F331B780E4A0021D1543B1C27
S1133F900F331A780C4B5200B91D0988D1523B1CBF
S1133FA00E33187880F310883B1C0F331B78022BD8
S1133FB001D1FF2302E03B1C0F331B78181CBD46C4
S1133FC004B080BD04E9FF1F00E9FF1F80B584B081
S1133FD000AF021CFB1D1A70FB1D1B78FF2B15D0B4
S1133FE03B1C0F33EFF3108072B61870FB1D1A7868
S1133FF0084B52000021D152FB1D1B78064A0121B7
S1134000D1543B1C0F33187880F31088BD4604B09C
S113401080BDC04600E9FF1F04E9FF1F80B584B0DE
S113402000AF021CFB1D1A70FB1D1B78FF2B01D176
S1134030012319E03B1C0E33EFF3108072B61870A5
S1134040FB1D1A780A4B5200D35A1BB25A425341F1
S1134050DAB23B1C0F331A703B1C0E33187880F312
S113406010883B1C0F331B78181CBD4604B080BD60
S113407000E9FF1F80B582B000AFBB1DEFF31080D5
S113408072B61870FB1D00221A7016E0FB1D1A7818
S11340900F4B5200D35A1BB2002B09DDFB1D1B78BA
S11340A00B4A59008A5A013A91B2094A5B00995263
S11340B0FB1DFA1D127801321A70FB1D1B78012BAF
S11340C0E4D9BB1D187880F31088BD4602B080BDCA
S11340D000E9FF1F80B582B000AFFB1D00221A70FB
S11340E00FE0FB1D1A780A4B52000021D152FB1D30
S11340F01B78084A0121D154FB1DFA1D12780132A4
S11341001A70FB1D1B78012BEBD9BD4602B080BD94
S113411000E9FF1F04E9FF1F80B584B000AF786099
S1134120114BFB60FB687A681A60104B0F4A5269A6
S11341308021C9000A435A610C4B0C4A11680C4A8D
S11341400A401A600B4B0B4A916A0B4A0A408021C1
S113415049000A439A62094BFA685A60FB68181CC2
S1134160BD4604B080BDC04608E9FF1F40F00F40C3
S1134170FFFBFFFF00A00440FFF8FFFE30E9FF1F34
S113418080B582B000AF7860034B8022D2009A6081
S1134190BD4602B080BDC04640F00FF880B582B085
S11341A000AF7860034B8022D2005A60BD4602B053
S11341B080BDC04640F00FF880B584B000AF786091
S11341C03E4BFB60FB687A689A613D4BFA681A6063
S11341D0FB6800221A60FB6800229A80FB680022B8
S11341E09A81FB6800229A60FB680022DA81FB68EE
S11341F000229A82FB6800221A61324A3149324B0A
S1134200CB588021090419432F4BD1502F4A2F49F1
S1134210C2239B00CB581B021B0A802109061943A9
S1134220C2239B00D150294B284A126880210901DE
S11342300A431A60264B264A116C264A0A40A021DA
S1134240C9000A431A64224B214A516C214A0A408C
S1134250A021C9000A435A641F4B1F4A51691D4AD1
S11342600A40802189000A435A611C4B1B4A116988
S1134270184A0A40802189000A431A61184B122205
S1134280DA70174B10229A70154B0022DA72144B15
S113429006225A70124B0F229A72114B104AD2788E
S11342A0D2B240210A43D2B2DA700E4BFA681A60D5
S11342B0FB68181CBD4604B080BDC0460CE9FF1F56
S11342C028E9FF1F007004403410000000E100E002
S11342D000A00440FFF8FFFE00C0044000D00440EA
S11342E00070074030E9FF1F80B584B000AFF8606C
S11342F0B960BB1D1A80FB689B89002B01D0082381
S113430020E0FCF7D3FFFB68BA689A60FB68BA1D2B
S113431012889A81FB6800229A800C4B1B78DBB2CE
S1134320DBB25BB2002B01DA084B9B79074B074ADF
S1134330D278D2B2802149420A43D2B2DA70FCF771
S1134340C5FF0023181CBD4604B080BD00700740A3
S113435080B584B000AFF860B960BB1D1A80FB68FB
S11343609B8A002B01D0082316E0FCF79FFFFB6813
S1134370BA681A61FB68BA1D12889A82FB68002227
S1134380DA81074B064AD278D2B220210A43D2B24C
S1134390DA70FCF79BFF0023181CBD4604B080BDF7
S11343A00070074090B583B000AF7860FB1C1970B3
S11343B0BB1C1A70FB1C1B78002B01D0942345E016
S11343C0BB1C1B78012B01D995233FE07B689B899B
S11343D0002B03D17B689B8A002B01D0082335E096
S11343E01C491C4BDB78DBB2DBB20D229343D8B201
S11343F0BB1C1A78184C131C5B009B181B5DDBB2AA
S1134400021C1343DBB2DBB2CB701249114B9B7815
S1134410DBB2DBB240229343D8B2BB1C1A780E4CF9
S1134420131C5B009B18E3185B78DBB2021C13437C
S1134430DBB2DBB28B700749BB1C1A780648131C2D
S11344405B009B18C3189B784B700023181CBD4657
S113445003B090BD007007403C6C000080B582B092
S113446000AF344B1B687B60334AFB1C12781A7014
S1134470FB1C1B785BB2002B28DA7B689B89002B22
S113448024D07B689B682C4A9279D2B21A705A1C49
S11344907B689A607B689B8801339AB27B689A80B8
S11344A07B689A887B689B899A420FD1224B224A67
S11344B0D278D1B27F220A40D2B2DA707B6800226D
S11344C09A817B689B69181C00F0E8FFFB1C1A7832
S11344D0202313402AD07B68DA897B689B8A9A421E
S11344E01CD2154A7B681B69197891715A1C7B6828
S11344F01A617B68DB8901339AB27B68DA817B6855
S1134500DA897B689B8A9A4210D17B6800229A825E
S11345107B689B69181C01F093FA07E0064B064A76
S1134520D278D2B220218A43D2B2DA70BD4602B028
S113453080BDC04628E9FF1F0070074090B585B0D4
S113454000AF021CFB1D1A70664B1B78DBB21A1CF1
S11345500223134003D0634B1B78DBB2BEE0002080
S113456000F006FF031C002B01D00123B6E03B1C26
S11345700D3300221A704020002100F0E9FD031CD5
S1134580012B00D09AE0D5235B004820191C00F0D1
S1134590DFFD031C012B5FD13B1C0F3300221A707B
S11345A010E03B1C0F331C7800F058FF031C1A1C4E
S11345B03B1C08331A553B1C0F333A1C0F3212783C
S11345C001321A703B1C0F331B78032BE9D93B1CB7
S11345D008339B78012B00D06EE03B1C0833DB785A
S11345E0AA2B69D1C0468023DB05E920191C00F001
S11345F0AFFD031C002BF6D17A20002100F0A8FDAA
S1134600031C002B58D13B1C0F3300221A7010E0FE
S11346103B1C0F331C7800F021FF031C1A1C3B1CAD
S113462008331A553B1C0F333A1C0F3212780132EF
S11346301A703B1C0F331B78032BE9D93B1C08333E
S11346401B781A1C4023134001D0062300E00223E8
S11346503A1C0D3213702FE0E920002100F078FDA0
S1134660031C012B08D83B1C0D3301221A703B1C80
S11346700E33E9221A7007E03B1C0D3308221A702E
S11346803B1C0E3341221A70C0463B1C0E331B7870
S1134690181C002100F05CFD031C002BF5D18023C5
S11346A09B005020191C00F053FD031C002B03D069
S11346B03B1C0D3300221A7000F0E2FE0A4B3A1C38
S11346C00D3212781A70074B1B78DBB20122934328
S11346D0DAB2044B1A70034B1B78DBB2181CBD46CC
S11346E005B090BD0CE0FF1F0DE0FF1F80B582B048
S11346F000AF021CFB1D1A70034B1B78DBB2181CA5
S1134700BD4602B080BDC0460CE0FF1F80B584B03A
S113471000AFB9607A603B603B1C0F33021C1A7017
S11347203B68002B01D1042350E02A4B1B78DBB2F9
S11347301A1C0123134001D0032347E0264B1B78A6
S11347401A1C0423134002D17B685B027B603B6824
S1134750012B14D17B685120191C00F0F9FC031CB7
S1134760002B2FD1BA6880239B00101C191C00F069
S113477023FC031C002B25D000233B6022E07B6834
S11347805220191C00F0E4FC031C002B1AD1BA6857
S113479080239B00101C191C00F00EFC031C002B32
S11347A00BD0BB68802292009B18BB603B68013B26
S11347B03B603B68002BEAD100E0C0464C2000215E
S11347C000F0C6FC3B685A1E9341DBB2181CBD4680
S11347D004B080BD0CE0FF1F0DE0FF1F80B584B066
S11347E000AFB9607A603B603B1C0F33021C1A7047
S11347F03B68002B01D104236EE0394B1B78DBB2FC
S11348001A1C0123134001D0032365E0344B1B78A9
S1134810DBB21A1C0423134001D002235CE0314BA9
S11348201B781A1C0423134002D17B685B027B6053
S11348303B68012B15D17B685820191C00F088FCBB
S1134840031C002B44D1BA6880239B00101CFE215A
S11348501A1C00F039FC031C002B39D000233B60E8
S113486036E0204B1B781A1C1023134004D03B68FD
S1134870D720191C00F06CFC7B685920191C00F02F
S113488067FC031C002B23D1BA6880239B00101CF7
S1134890FC211A1C00F018FC031C002B0BD0BB6875
S11348A0802292009B18BB603B68013B3B603B68E5
S11348B0002BE9D100E0C04680239B000020FD21AD
S11348C01A1C00F001FC031C002B01D101233B60E6
S11348D03B685A1E9341DBB2181CBD4604B080BD30
S11348E00CE0FF1F0DE0FF1F80B500AF0123181C73
S11348F0BD4680BD80B500AFBD4680BD80B500AF6C
S1134900BD4680BD90B58BB000AF3A60FB1D021C64
S11349101A70BB1D0A1C1A703B1C273300221A7024
S11349203B683B62BB1D1B78052B20D13B6A1B787F
S1134930012B0CD0022B0DD0002B13D1FFF7D4FF89
S1134940031C002B00D105E2FFF7D4FF02E2FFF7BE
S1134950D5FF10E23B6A5C1CFFF7C6FF031C237003
S1134960C04608E23B1C273304221A7003E2D64BEC
S11349701B78DBB21A1C0123134001D00323FDE191
S1134980BB1D1B78112B00D9DFE19A00CF4BD31844
S11349901B689F4600F0DAFA031C002B00D1DBE110
S11349A03B1C273301221A70D6E14920002100F074
S11349B0CFFB031C002B00D0D0E13B1C0C33181C94
S11349C0102100F0F9FA031C002B00D1C6E13B1CB6
S11349D00C335B791A1C0F231340092B05D013DB0E
S11349E00A2B07D00B2B0AD00EE03B6A80229200E0
S11349F01A800DE03B6A8022D2001A8008E03B6AEC
S1134A00802212011A8003E03B6A00221A80C04609
S1134A10A4E14920002100F09BFB031C002B00D0E3
S1134A209EE13B1C0C33181C102100F0C5FA031C3A
S1134A30002B00D194E13B1C0C331B789B09DBB2A7
S1134A40012B03D13B6A02221A7089E13B6A0122DD
S1134A501A7085E14920002100F07AFB031C002B29
S1134A6000D07FE13B1C0C33181C102100F0A4FA89
S1134A70031C002B00D175E13B1C0C331B789B09F4
S1134A80DBB2012B15D13B1C0C335B7A1A1C3B1C8B
S1134A900C331B7A1B029BB2D3189AB23B1C1E33F5
S1134AA001321A803B1C1E331B889A023B681A6031
S1134AB058E13B1C0C335A790F231340DAB23B1CE8
S1134AC00C339B7ADB09DBB2D318DAB23B1C0C3310
S1134AD0597A03230B40DBB25B00DBB2D318DAB2A2
S1134AE03B1C263302321A703B1C0C331B7A9B0985
S1134AF0DBB21A1C3B1C0C33DB799B009BB2D31832
S1134B009AB23B1C0C339B79191C03230B409BB2B8
S1134B109B029BB2D3189AB23B1C1E3301321A80FB
S1134B203B1C1E331A883B1C26331B78093BDBB223
S1134B309A403B681A6015E13B68802292001A8013
S1134B4019E1634B1B781A1C0223134030D0CD208B
S1134B50002100F0FDFA031C002B00D004E100F05A
S1134B607DFC3B1C0C33181C102100F025FA031C9F
S1134B70002B00D1F8E03B1C263330221A7008E0E9
S1134B8000F06CFC3B1C26333A1C26321278013AA6
S1134B901A703B1C26331B78002BF1D13B1C0C33C1
S1134BA09B7A1B09DBB210229A403B681A60DBE057
S1134BB04920002100F0CCFA031C002B00D0D3E0E4
S1134BC03B1C0C33181C102100F0F6F9031C002BBD
S1134BD000D1C9E03E4B1B781A1C012313401BD0A3
S1134BE03B1C0C339B7A1A1C3F2313405A003B1C7A
S1134BF00C33DB7ADB09DBB2D3185A1C3B1C0C33B5
S1134C005B7B9B09DBB2013BDBB2111C99400B1CA3
S1134C101A1C3B681A60A7E03B1C0C339B7A1A1CD5
S1134C207C2313409B109BB201333A1C0C32D27A82
S1134C30111C03220A40D1003A1C0C32D27A5209C8
S1134C40D2B28A18013253431A1C3B681A608BE0B3
S1134C501F4B1A783B6A1A708DE04920002100F03E
S1134C6077FA031C002B08D13B6A181C102100F0B2
S1134C70A3F9031C002B00D078E03B1C273304224B
S1134C801A7073E04A20002100F062FA031C002B22
S1134C9008D13B6A181C102100F08EF9031C002B6C
S1134CA000D065E03B1C273304221A7060E07A20B0
S1134CB0002100F04DFA031C002B21D13B1C2633AC
S1134CC004221A7016E0C0460CE0FF1F446C00007A
S1134CD00DE0FF1F00F0C2FB031C1A1C3B6A1A7094
S1134CE03B6A01333B623B1C26333A1C2632127862
S1134CF0013A1A703B1C26331B78002BEAD104E0DE
S1134D003B1C273304221A7035E034E0CD20002107
S1134D1000F01EFA031C002B0ED100F09FFB3B6A2F
S1134D20181C402100F048F9031C002B22D13B1C25
S1134D30273304221A701DE03B1C273304221A7007
S1134D4018E03B6A00221A7015E03B1C273304224A
S1134D501A7010E0C0460EE0C0460CE0C0460AE0FF
S1134D60C04608E0C04606E0C04604E0C04602E093
S1134D70C04600E0C0463B1C27331B78181CBD46C8
S1134D800BB090BD80B584B000AF021CFB1D1A703F
S1134D900E4B00221A700E4B1A683B1C0F33101C6A
S1134DA0191C0122FFF7A0FA094B1A68FB1D101CFD
S1134DB0191C0122FFF7CCFAC046044B1B78DBB266
S1134DC0002BFAD0BD4604B080BDC0462CE9FF1FBD
S1134DD030E9FF1F80B584B000AF78600A1CBB1CAB
S1134DE01A803BE0BB1C1B88042B04D93B1C0E33EC
S1134DF004221A8004E03B1C0E33BA1C12881A8069
S1134E001A4B00221A701A4B19683A1C08323B1CC0
S1134E100E331B88081C111C1A1CFFF765FA144B6F
S1134E2019687A683B1C0E331B88081C111C1A1C59
S1134E30FFF78EFAC0460D4B1B78DBB2002BFAD07D
S1134E40BB1CB91C3A1C0E32098812888A1A1A80B3
S1134E503B1C0E331B887A68D3187B60BB1C1B88F1
S1134E60002BBFD1BD4604B080BDC0462CE9FF1F56
S1134E7030E9FF1F80B582B000AF021C3960FB1D12
S1134E801A700E4B00221A700D4B1A683B68101CE6
S1134E90191C0122FFF728FA094B1A68FB1D101C84
S1134EA0191C0122FFF754FAC046044B1B78DBB2ED
S1134EB0002BFAD0BD4602B080BDC0462CE9FF1FCE
S1134EC030E9FF1F80B584B000AFF860B960BB1D46
S1134ED01A80104B00221A700F4B1968BA68BB1D58
S1134EE01B88081C111C1A1CFFF7FEF90A4B1968D1
S1134EF0FA68BB1D1B88081C111C1A1CFFF728FA32
S1134F00C046044B1B78DBB2002BFAD0BD4604B07C
S1134F1080BDC0462CE9FF1F30E9FF1F80B500AFFC
S1134F20034B5B68181CFFF72BF9BD4680BDC046D8
S1134F3030E9FF1F80B500AF034B5B68181CFFF717
S1134F402DF9BD4680BDC04630E9FF1F90B583B042
S1134F5000AFFFF7E3FFFF20FFF714FFFC1D322033
S1134F60FEF7DEFF031C237000E0C046BB1DFF20DC
S1134F70191CFFF77FFFBB1D1B78FF2B08D0FB1DFF
S1134F801B78181CFFF74AF8031C002BEDD000E037
S1134F90C046FB1D1B78181CFFF718F8FFF7CAFF63
S1134FA0BB1D1B78FF2B01D1002300E00823181C34
S1134FB0BD4603B090BDC04690B585B000AF7860E3
S1134FC00A1CBB1C1A803B1C0E33802292001A80E0
S1134FD0FFF7A4FF3B1C0C33FF20191CFFF74AFF0B
S1134FE03B1C0E333A1C0E321288013A1A803B1CC9
S1134FF00C331B78FF2B04D13B1C0E331B88002B76
S1135000E8D13B1C0C331B78FF2B24D13C1C0D3402
S11350103220FEF785FF031C237000E0C0463B1CD2
S11350200C33FF20191CFFF725FF3B1C0C331B78A6
S1135030FF2B09D13B1C0D331B78181CFEF7EEFF28
S1135040031C002BEAD000E0C0463B1C0D331B7848
S1135050181CFEF7BBFF3B1C0C331B78FE2B03D044
S1135060FFF768FF002329E0BB1C1A8880239B00FC
S11350709A4216D813497A68BB1C1B88081C111C59
S11350801A1CFFF71FFF10E07B68FF20191CFFF7B5
S1135090F1FE7B6801337B60BB1CBA1C1288013AA9
S11350A01A80BB1C1B88002BEED1FF20FFF76AFE81
S11350B0FF20FFF767FEFFF73DFF0123181CBD46E5
S11350C005B090BD8C6C000080B584B000AF7860F2
S11350D0FB1C19703B1C1A80FFF738FF031C002BC4
S11350E001D000232FE0FFF719FFFB1C1B78181CCD
S11350F0FFF748FEFB1C1B78FD2B21D07A683B1C74
S11351001B88101C191CFFF765FEFF20FFF73AFEF1
S1135110FF20FFF737FE3B1C0F33FF20191CFFF75E
S1135120A9FE3B1C0F331B781A1C1F231340052BAD
S113513003D0FFF7FFFE002305E0FF20FFF722FE68
S1135140FFF7F8FE0123181CBD4604B080BDC0461D
S113515090B585B000AF021C3960FB1D1A70FB1DB1
S11351601B785BB2002B17DAFB1DFA1D11787F2226
S11351700A401A7077200021FFF7EAFF031C1A1C6B
S11351803B1C0D331A703B1C0D331B78012B03D9C8
S11351903B1C0D331B7885E0FFF7D8FE031C002B66
S11351A001D0FF237EE0FFF7B9FEFB1D1B78181C1E
S11351B0FFF7E8FD3B681A0E3B1C0F331A703B1CCB
S11351C00F331B78181CFFF7DDFD3B681A0C3B1CE2
S11351D00F331A703B1C0F331B78181CFFF7D2FDDA
S11351E03B681A0A3B1C0F331A703B1C0F331B78A5
S11351F0181CFFF7C7FD3B68DBB2181CFFF7C2FDA4
S1135200FB1D1B78402B04D13B1C0F3395221A70D5
S11352100CE0FB1D1B78482B04D13B1C0F33872269
S11352201A7003E03B1C0F3301221A703B1C0F332E
S11352301B78181CFFF7A6FDFB1D1B784C2B05D112
S11352403B1C0D33FF20191CFFF714FE3C1C0E34CD
S11352500A20FEF765FE031C237000E0C0463B1CD9
S11352600D33FF20191CFFF705FE3B1C0D331B7883
S1135270DBB25BB2002B09DA3B1C0E331B78181C23
S1135280FEF7CCFE031C002BE8D000E0C0463B1C1C
S11352900E331B78181CFEF799FEFFF74BFE3B1CE0
S11352A00D331B78181CBD4605B090BD80B584B085
S11352B000AF3960FB1D011C1970BB1D1A703B1C2B
S11352C00E3300221A70FFF729FEFB1D1B78181CF1
S11352D0FFF758FD3B1C0F3300221A700FE03B1CF4
S11352E00F331B783A68D3181B78181CFFF74AFD54
S11352F03B1C0F333A1C0F32127801321A703B1CDC
S11353000F331B78032BEAD99520FFF73BFD3B1C99
S11353100F3300221A7013E03B1C0E33FF20191CBC
S1135320FFF7A8FD3B1C0E331B78BA1D12789A4276
S11353300CD03B1C0F333A1C0F32127801321A7016
S11353403B1C0F331B78022BE6D900E0C046FFF765
S1135350F1FD3B1C0E331B78BA1D12789A4201D121
S1135360002300E01223181CBD4604B080BDC046D3
S113537090B585B000AF78603B1C0F3300221A70E3
S11353800120FEF771FCFFF7C9FD334B1B68181CA5
S113539000210022FFF706F82F4B5B68181CFEF76C
S11353A0FDFE3B1C0E3300221A7009E0FF20FFF7BC
S11353B0E9FC3B1C0E333A1C0E32127801321A708F
S11353C03B1C0E331B78092BF0D99623DB00181CE9
S11353D0FEF70AFCFFF7AEFD0023BB603C1C0D3456
S11353E03220FEF79DFD031C23700DE03B1C0D33A2
S11353F01B78181CFEF712FE031C002B04D03B1C68
S11354000F3301221A7009E03B1C08334020191C99
S11354100122FFF74BFF031C002BE7D13B1C0D338C
S11354201B78181CFEF7D2FD3B1C0F331B78002B96
S113543001D012230CE0FFF771FD074B5B68181CC9
S1135440FEF7ACFEFF20FFF79DFCFFF773FD002382
S1135450181CBD4605B090BD30E9FF1F80B582B071
S113546000AFFFF75BFDFB1DFF20191CFFF702FDDA
S1135470FFF760FDFB1D1B78181CBD4602B080BD04
S113548080B500AF044B1B68181C01210122FEF7F4
S113549089FFBD4680BDC04630E9FF1F80B582B09C
S11354A000AF7860024B01221A70BD4602B080BD85
S11354B02CE9FF1F80B582B000AF021CFB1D1A70DF
S11354C0FB1D1B78002B06D1FB1D1B78181CFFF756
S11354D035F8031C01E0C0460423181CBD4602B085
S11354E080BDC04680B582B000AF021CFB1D1A709F
S11354F0FB1D1B78002B06D1FB1D1B78181CFFF726
S1135500F5F8031C01E0C0460423181CBD4602B094
S113551080BDC04680B584B000AFB9607A603B609E
S11355203B1C0F33021C1A703B1C0F331B78002BDF
S113553009D13B1C0F331878B9687A683B68FFF7C8
S1135540E5F8031C01E0C0460423181CBD4604B062
S113555080BDC04680B584B000AFB9607A603B605E
S11355603B1C0F33021C1A703B1C0F331B78002B9F
S113557009D13B1C0F331878B9687A683B68FFF788
S11355802DF9031C01E0C0460423181CBD4604B0D9
S113559080BDC04680B582B000AF3A60FB1D021CDE
S11355A01A70BB1D0A1C1A70FB1D1B78002B0BD133
S11355B0FB1D1978BB1D1A783B68081C111C1A1CAA
S11355C0FFF7A0F9031C01E0C0460423181CBD46E4
S11355D002B080BD80B582B000AF021C3960FB1DF3
S11355E01A700120FBF74CFB021C3B681A603B68F5
S11355F01B685A1E9341DBB2181CBD4602B080BD25
S113560080B582B000AF78607B68181CFBF71CFD86
S11356100123181CBD4602B080BDC04680B582B0CF
S113562000AF78607A68FA239B00101C00211A1CD2
S11356300023FBF72BFC031C012B01D1012300E009
S11356400023181CBD4602B080BDC04680B582B0A0
S113565000AF78607B68181C002100220023FBF750
S113566055FBBD4602B080BD90B585B000AF3C1C73
S11356700F343B1C0833181CFEF75CFB031C23701F
S11356803B1C0F331B78002B01D0002329E03C1C6A
S11356900F343B1D181CFEF70BFC031C23703B1C32
S11356A00F331B78002B01D000231AE03B1D1B880D
S11356B00E4A9B185A063B1D9B785B051A433B1DFB
S11356C0DB781B041A433B1C08331B78DB021A43A8
S11356D03B1C08335B785B011A433B1C08339B7803
S11356E01343181CBD4605B090BDC04644F8FFFFE7
S11356F080B500AF00F0A0F9BD4680BD80B500AF15
S1135700FFBEBD4680BDC04680B500AF534A544974
S1135710544BD150544A88235B010021D150524A42
S1135720524BC0218902D1504F4A4F49504BCB585C
S1135730D821890119434E4BD1504E4B9B78DBB293
S11357401A1C0823134007D04A4B4A4A9278D2B213
S113575008210A43D2B29A70434A444B8021490239
S1135760D150414A4049444BCB5880214902194306
S1135770414BD1503C4B3C4A1268C02109030A43B7
S11357801A60394A38493C4BC9583C4B0B4080217C
S113579049041943384BD150394B394A916C394A31
S11357A00A409A64364B364AD16C364A0A40DA6467
S11357B0354B354A5278D2B2D2B2111C40220A403B
S11357C0D2B224210A43D2B2D2B25A702F4B8022D1
S11357D01A702D4B9A221A702B4B2B4AD278D1B2C5
S11357E01F220A40D2B2DA70274B23221A71264BA9
S11357F000225A71C046244B9B79DBB21A1C102339
S11358001340F8D1C046204B9B79DBB21A1C0C2301
S11358101340082BF7D11C4B40225A71C0461A4B37
S11358209B79DBB21A1C0C231340082BF7D1C0461A
S1135830154B9B79DBB21A1C40231340F8D0124B52
S11358401A221A70C046104B9B79DBB21A1C0C2327
S113585013400C2BF7D1BD4680BDC04600E000E0EC
S113586000000000080D0000007004404410000017
S11358703810000000D0074004100000FFFFFFFCB8
S113588000900440FFF8FFFE004006400050064030
S113589080B500AF72B62F4B2E4A11692E4A0A40CA
S11358A0E021C9000A431A612C4B2C4A5279D2B226
S11358B01F218A43D2B25A71284B284A1279D2B294
S11358C007218A43D2B21A71254B254A1278D2B2E3
S11358D0D2B273218A43D2B250210A43D2B2D2B295
S11358E01A701F4B1E4A5278D2B2D2B263218A4335
S11358F0D2B240210A43D2B2D2B25A70184B184ADB
S11359009278D2B219218A43D2B29A70154B0022EE
S11359101A70104B0F4A116D0F4A0A40E021C9005A
S11359200A431A65104A1049C1239B00C9580F4BFA
S11359301940C1239B00D1500020FEF73DFCFBF72A
S1135940ABFCFEF7C7FB0020FEF7E6FBFEF7D6FA3A
S1135950BD4680BD00900440FFF8FFFE00F0074004
S113596000D0074000E0074000E100E0FFFF00FF37
S113597080B500AF054A064BD31A054A101C002116
S11359801A1C00F0A2F8BD4680BDC046B4EDFF1F4E
S113599010E0FF1F01F086F8FFF7B6FEFFF7E8FFFF
S11359A001F0B4F801F032F801F08AF8044B002059
S11359B0191C00F00DF8031C181C00F05BF8C0461D
S11359C038E9FF1F80B582B000AF7860FEE7C046BB
S11359D080B582B000AFFFF75BFF134B181C0021AA
S11359E00022FDF725FC114A114B101C191C0A2238
S11359F0FDF788FC031C002B00D0FEE70B490D4A81
S1135A003B1D081C111C0C22FDF708FE031C002B77
S1135A1000D0FEE7054B181CFEF7A6F80020002175
S1135A200022FDF705FCD8E73CE9FF1F74EBFF1FDC
S1135A30846B0000906B000080B500AFBD4680BD54
S1135A4080B582B000AF7860BD4602B080BDC0466C
S1135A5080B582B000AF7860396072B6FEE7C046A8
S1135A6080B500AFFEF706FBBD4680BD80B500AF34
S1135A7072B6FEE738B5051C01F006F800F0EAFF3F
S1135A80084C2368002B02D0984700202060064C65
S1135A902168002902D0884700222260281CFFF7D1
S1135AA091FF38BD9CEDFF1FA0EDFF1F00B5C9B2EB
S1135AB00378421C002B03D08B4205D0101CF7E75F
S1135AC04B4259414942084000BD10B5041C00F046
S1135AD002F8201C10BD30B5C9B2031C1F2A31D9ED
S1135AE044420323234005D0D21AC5180170013063
S1135AF0A842FBD1002905D00D060C042C430B024F
S1135B00214319435409031C002C0ED0251C013DCC
S1135B10196059609960D960196159619961D961B5
S1135B202033002DF3D16301C318D006400F07D0F2
S1135B30041C1D1C013C02C5002CFBD180001B1859
S1135B40032422409D18002A03D019700133AB426C
S1135B50FBD130BD10B50023934203D0CC5CC454B8
S1135B600133F9E710BD00B5431E01331A78002A4A
S1135B70FBD1181A00BD0000F0B589B001901F1CBC
S1135B800EAB0391079202901A78081C01990FAC8E
S1135B9001380026049225780670B14217D1119B72
S1135BA0B34214D1049B002B01D06F2D2FD0642D50
S1135BB002D0692D00D0A8E0022F02D10398023848
S1135BC09FE0012F00D0A0E00398023894E0692DF3
S1135BD00ED004D8582D16D0642D1CD108E0752D94
S1135BE004D0782D0FD06F2D15D110E0002712E0CE
S1135BF0019A002A0FDA80242606B2420DD05142BF
S1135C000191029109E000273E1C102407E00027BF
S1135C103E1C082403E0002600E001260A2400902C
S1135C20002006900298211CFAF74AFC029805917C
S1135C30211CFAF701FC059A0290092A01D8303296
S1135C4005E0059A3732782D01D1059A573200982C
S1135C50069B02990138D2B20090027001330029E8
S1135C6001D00693DEE7011C082C0BD10498002810
S1135C7008D0302A06D00B1C013B302200931A7046
S1135C80069B0233079802280FD1002E01D1002F62
S1135C9002D0109901391091109A1192102C04D14C
S1135CA00498002801D0023A119203990098119A9D
S1135CB0091A8918164A914226DC0099CA181199C2
S1135CC0121A8A4203DA013830220270F5E7102CE6
S1135CD00AD1049C002C07D0019B002B04D0421E47
S1135CE03021023815700170002E02D001382D21A8
S1135CF008E0012F02D101382B2103E0022F04D147
S1135D0001382021017000E0002009B0F0BDC04638
S1135D10FD010000F0B5B64C1E1CA5446B460A906C
S1135D200B913E3320210020197008920590089AA7
S1135D301578002D00D1F9E108982521FFF7B6FE6A
S1135D400C90002811D10898FFF70DFF0599021C4B
S1135D5008180590002A00D1E8E10B9808990A9EDA
S1135D60B047002800D0E1E1CEE00C9F089C0599E3
S1135D703A1B8B180593002A0CD10C980C9A437883
S1135D8001321D1E252D0CD000270121BC460D9784
S1135D90069119E00B9808990A9DA8470028ECD1B0
S1135DA0B2E00C9A00210232012408920791069471
S1135DB03DE02B2B0BDC202B10D0232B00D0BAE0A2
S1135DC001239C46013213782B2BF2D1ABE12D2B0E
S1135DD000D1A5E1302B00D0ADE004E00D9D012DF4
S1135DE0F0D00220A0E1069C002CEBD0022006900B
S1135DF0E8E737680436FB43D80F937802321C1C5B
S1135E00683C0021042C00D8C1E0DDB26E2B00D028
S1135E10C7E0013208926E2D00D149E100D900E1BA
S1135E20632D00D159E107D8252D00D0F3E010AC43
S1135E3025700996012619E0642D00D0EEE0321D8C
S1135E4009923068032900D0F6E007996646009667
S1135E5001950291039790A9069A0D9BFFF78CFE7A
S1135E60041E00D13FE1634F6F443E1A0698002898
S1135E703CD02023022800D130236F463E373B70AC
S1135E8022782B2A04D02D2A02D0371C202A0BD1A9
S1135E90371C302B08D10B98211C01220A9B9847F0
S1135EA0002831D00134771E069902290ED1612DC4
S1135EB001D0412D0AD1012F26DD0B98211C02228D
S1135EC00A9DA84700281FD0023F0234351C079EB4
S1135ED0B54209DA69460B983E3101220A9B98477C
S1135EE0002811D00135F2E73E1C00E0351C002EDD
S1135EF003D10698002819D115E0211C0B98321CF7
S1135F000A9CA0470028F4D10122554205950DE1D1
S1135F1069463F3120240B9801220A9F0C70B84730
S1135F200028F1D00135079FBD42F1DB059A5319D2
S1135F300593099EFBE6171C2A2B00D0E1E0341DD3
S1135F4036680796002E03DA7342002507930695F8
S1135F507B780132261C284F0798B84200DDC2E046
S1135F602E2B11D153782A2B00D142E7013200277E
S1135F701C1C303C092C05D80A214F4301323F191F
S1135F801378F5E701203AE70027381C37E71B4D63
S1135F90295D1B4D2C57002C00D136E75378013274
S1135FA033E76E2B0ADC632B2CD002DC582B30D168
S1135FB015E0642B13D0692B2BD110E0732B23D065
S1135FC009DC6F2B0BD0702B23D1012378250827F4
S1135FD003219C461DE7752B01D0782B19D100288D
S1135FE015D0069C022C00D013E70123069310E77A
S1135FF0BCFDFFFF3F020000FD010000926E0000A7
S11360008D6E0000002804D1002902D101E7012788
S1136010FFE6FF25FDE6582D65D116E0692D62D116
S11360200DE7732D23D002D86F2D5CD10DE0752DB3
