S01B00004769744875624775794B4C343650726F6A6563742E68657821
S113000000600020CD0E0000BD0A0000C90A0000F7
S1130010C90A0000C90A0000C90A0000C90A000090
S1130020C90A0000C90A0000C90A0000C90A000080
S1130030C90A0000C90A0000C90A0000C90A000070
S1130040C90A0000C90A0000C90A0000C90A000060
S1130050C90A0000C90A0000C90A0000C90A000050
S1130060E1040000C90A0000C90A0000C90A00002E
S1130070C90A0000C90A0000C90A0000C90A000030
S1130080C90A0000C90A0000C90A0000C90A000020
S1130090C90A0000C90A0000C90A0000C90A000010
S11300A0C90A0000C90A0000C90A0000C90A000000
S11300B0C90A0000C90A0000C90A0000C90A0000F0
S1130400FFFFFFFFFFFFFFFFFFFFFFFF7EFFFFFF79
S113041002B4714649084900095649008E4402BC99
S11304207047C04602B4714649084900095C490056
S11304308E4402BC7047C046002934D001230022F8
S113044010B488422CD301242407A14204D281424F
S113045002D209011B01F8E7E400A14204D281425F
S113046002D249005B00F8E7884201D3401A1A43DC
S11304704C08A04202D3001B5C0822438C08A04213
S113048002D3001B9C082243CC08A04202D3001BC9
S1130490DC082243002803D01B0901D00909E3E743
S11304A0101C10BC7047002801D00020C04307B4C2
S11304B0024802A14018029003BDC0461900000082
S11304C00029F0D003B5FFF7B9FF0EBC4243891AE7
S11304D01847C0467047C04680B500AFBD4680BDD2
S11304E090B583B000AF7E4B1B687B607D4BDB789F
S11304F0DCB27C4B7B4AD278D2B2D2B212218A438C
S1130500D1B2E2B20A43D2B2D2B2DA70754B9B785E
S1130510DBB21A1C2023134000D1C2E0714B9B783C
S1130520DBB21A1C1023134000D179E0221C0123F2
S113053013401DD06B4B6B4A9278D2B220218A4370
S1130540D2B29A70674B674A9278D2B210218A432A
S1130550D2B29A707B6800221A817B6800225A808A
S11305607B681B7801229343DAB27B681A70B4E08B
S11305707B681B89002B0ED07B681B89013B9AB2D8
S11305807B681A81574A7B68DB68197811715A1C99
S11305907B68DA60A1E07B685B88002B1FD07B68F6
S11305A05B88012B08D14F4B4E4A9278D2B2082176
S11305B00A43D2B29A7007E04A4B4A4A9278D2B2BE
S11305C008218A43D2B29A70464B464A9278D2B2F4
S11305D010218A43D2B29A70424B1B797DE07B682A
S11305E01B7801229343DAB27B681A707B685B78CC
S11305F0012B0FD13B4B3B4A9278D2B220218A4344
S1130600D2B29A70374B374A9278D2B210218A43C9
S1130610D2B29A707B681B69181C00F09BFE5CE0E8
S11306207B685B88013B9AB27B685A807B685B88F5
S1130630002B0CD07B685B88012B1FD1294B294AE6
S11306409278D2B208210A43D2B29A7016E07B683B
S11306501B7801229343DAB27B681A70214B214A3A
S11306609278D2B220218A43D2B29A701D4B1D4A8D
S11306709278D2B208218A43D2B29A707B685B68BE
S1130680184A1279D2B21A705A1C7B685A607B6875
S11306905B88002B21D17B681B69181C00F066FE67
S11306A01BE0221C1023134017D07B6800221A8100
S11306B07B6800225A807B6801225A707B681B7811
S11306C001229343DAB27B681A70064B054A92788A
S11306D0D2B210218A43D2B29A70BD4603B090BD03
S11306E024E0FF1F0060064080B584B000AF78604E
S11306F0384BFB60FB687A681A61374BFA681A60FA
S1130700FB6800221A70FB6801225A70FB68002201
S11307105A80FB6800221A81304A3049304BCB584A
S1130720402119432E4BD1502E4B00229A702D4B51
S113073040229A712B4B0222DA702B4B2A4A516EBB
S11307402A4A0A40A021C9000A435A66264B264A6F
S1130750116E264A0A40A021C9000A431A66244A97
S11307602349C2239B00CB58FF218B43802119438B
S1130770C2239B00D1501E4B1D4A126880214900A0
S11307800A431A60174B00225A71164B00229A71C1
S1130790144B08221A72134B00225A70114B114A3F
S11307A09278D2B2D2B2802149420A43D2B2D2B2B2
S11307B09A700C4B0B4A9278D2B240210A43D2B2BF
S11307C09A700C4BFA681A60FB68181CBD4604B09A
S11307D080BDC04610E0FF1F24E0FF1F00700440EE
S11307E0341000000060064000D00440FFF8FFFE13
S11307F000E100E000E0FF1F80B582B000AF786048
S1130800094B00229A70094B00221A60084A0849D1
S1130810084BCB584021181C8843011C054BD15070
S1130820BD4602B080BDC0460060064000E0FF1F28
S1130830007004403410000080B586B000AFF8604A
S1130840B960111C1A1CBB1D19807B1D1A70FB6832
S11308507B61BB1D1B88002B01D100237FE07B69DA
S11308605B78012B12D1404BDB78DBB21A1C2023BE
S1130870134009D17B691B781A1C0123134003D14F
S11308807B691B89002B0DD0082368E07B691B78EA
S11308901A1C0123134003D17B691B89002B01D04F
S11308A008235CE03B1C1333EFF3108072B618701E
S11308B02E4B1B78DBB20133DBB22C4A191C1170AE
S11308C0012B04D13B1C13331A78294B1A707B6912
S11308D01B7801221343DAB27B691A707B69BA6808
S11308E0DA607B69BA1D12881A817B697A1D1278D5
S11308F05A701D4B1C4A9278D2B2D2B210210A43CC
S1130900D2B2D2B29A70184B9B78DBB21A1C202355
S1130910134008D0144B144A9278D2B204210A43EB
S1130920D2B29A7009E0104B0F4A9278D2B2D2B286
S113093020210A43D2B2D2B29A700B4B3A221A71D6
S11309400A4B1B78DBB2013BDBB2084A191C11705D
S1130950002B03D1064B187880F310880023181C51
S1130960BD4606B080BDC0460060064028E0FF1FBB
S113097068E0FF1F80B586B000AFF860B960111C55
S11309801A1CBB1D19807B1D1A70FB687B61BB1D83
S11309901B88002B01D1002385E07B1D1B78002BD5
S11309A001D181237FE07B695B78012B12D1404B1D
S11309B0DB78DBB21A1C2023134009D17B691B7836
S11309C01A1C0123134003D17B695B88002B0DD0D3
S11309D0082368E07B691B781A1C0123134003D1A8
S11309E07B695B88002B01D008235CE03B1C13333C
S11309F0EFF3108072B618702E4B1B78DBB2013304
S1130A00DBB22C4A191C1170012B04D13B1C13338B
S1130A101A78294B1A707B691B7801221343DAB2C6
S1130A207B691A707B69BA685A607B69BA1D12883F
S1130A305A807B697A1D12785A701D4B1C4A927831
S1130A40D2B2D2B210210A43D2B2D2B29A70184BA7
S1130A509B78DBB21A1C2023134008D0144B144A91
S1130A609278D2B204210A43D2B29A7009E0104BB0
S1130A700F4A9278D2B2D2B220210A43D2B2D2B271
S1130A809A700B4B3B221A710A4B1B78DBB2013B69
S1130A90DBB2084A191C1170002B03D1064B1878DD
S1130AA080F310880023181CBD4606B080BDC046E4
S1130AB00060064028E0FF1F68E0FF1F80B500AF1C
S1130AC000F044FCBD4680BD80B500AFFFBEBD460E
S1130AD080BDC04680B500AF384A3949394BD15042
S1130AE0394A88235B010021D150374A374BC02152
S1130AF08902D150344A3449354BCB58E821890115
S1130B001943334BD150334B9B78DBB21A1C082367
S1130B10134007D02F4B2F4A9278D2B208210A43B0
S1130B20D2B29A70284A294B0021D150264A26492C
S1130B30294BC958294B1940274BD150224B224AE3
S1130B401268C02109030A431A601F4A1E49224B36
S1130B50C958234B0B408021490419431E4BD150E3
S1130B60204B06221A701F4B1E4A5278D1B24022E3
S1130B700A40D2B25A701B4B1A4AD278D1B21F2201
S1130B800A40D2B2DA70184B80221A70154B002238
S1130B901A71144B00225A71C046124B9B79DBB276
S1130BA01A1C10231340F8D0C0460E4B9B79DBB2BD
S1130BB01A1C0C231340F8D1BD4680BD00E000E0B0
S1130BC000000000080D0000007004404410000004
S1130BD03810000000D0074004100000FFFFFEFFA3
S1130BE0FFFFFFFC004006400050064080B500AF08
S1130BF0384B384A1169384A0A40E021C9000A438F
S1130C001A61364B354A5279D2B21F218A43D2B285
S1130C105A71324B314A1279D2B207218A43D2B285
S1130C201A712F4B2E4A1278D2B2D2B273218A4350
S1130C30D2B250210A43D2B2D2B21A70284B284AF7
S1130C405278D2B2D2B263218A43D2B240210A434B
S1130C50D2B2D2B25A70224B214A9278D2B219211E
S1130C608A43D2B29A701F4B00221A701E4B1E4A3E
S1130C70D1681E4A0A4003210A43DA60154B154A1B
S1130C80116D154A0A40E021C9000A431A65184A41
S1130C901749C1239B00C958164B1940C1239B0017
S1130CA0D150002000F0B0F8134B5B68181C00F022
S1130CB0EDF8002000F060F80F4B9B68181C00F062
S1130CC097F8002000F01AF8FFF706FC62B6BD465C
S1130CD080BDC04600900440FFF8FFFE00F00740CE
S1130CE000D0074000E0074000B00440FCFFFFFED6
S1130CF000E100E0FFFF00FF00E0FF1F80B584B0CB
S1130D0000AF78600D4BFB60FB687A681A600C4B8F
S1130D100B4A526908218A435A610A4B094AD1682D
S1130D20094A0A40802149000A43DA60074BFA68FD
S1130D30DA60FB68181CBD4604B080BD2CE0FF1FC0
S1130D4080F00F4000B00440FFF8FFFE00E0FF1FFA
S1130D5080B584B000AF7860064B1A69082313404D
S1130D60FB60FB685A1E9341DBB2181CBD4604B0FD
S1130D7080BDC04680F00FF880B584B000AF7860C5
S1130D80104BFB60FB687A681A600F4B0E4A52697D
S1130D9020210A435A610C4B0B4A126820218A43D2
S1130DA01A600A4B094A5169094A0A4080214900DC
S1130DB00A435A61074BFA689A60FB68181CBD46DF
S1130DC004B080BD30E0FF1FC0F00F4000C00440FD
S1130DD0FFF8FFFE00E0FF1F80B582B000AF78602F
S1130DE0024B20229A60BD4602B080BDC0F00FF8CD
S1130DF080B582B000AF7860024B20225A60BD46B5
S1130E0002B080BDC0F00FF880B584B000AF786048
S1130E10114BFB60FB687A681A60104B0F4A5269E9
S1130E20802189050A435A610C4B0C4A11680C4A0B
S1130E300A401A600B4B0B4A516F0B4A0A4080213F
S1130E4049000A435A67094BFA685A60FB68181C40
S1130E50BD4604B080BDC04634E0FF1F00F10F4022
S1130E60FFFFFFDF00D00440FFF8FFFE00E0FF1F9C
S1130E7080B582B000AF7860034B802292059A60FF
S1130E80BD4602B080BDC04600F10FF880B582B007
S1130E9000AF7860034B802292055A60BD4602B0D1
S1130EA080BDC04600F10FF880B500AF054A064B7F
S1130EB0D31A054A101C00211A1C00F07FFABD4603
S1130EC080BDC046A455002000E0FF1F01F0AEFA2B
S1130ED0FFF700FEFFF7E8FF01F080FA01F01CFACB
S1130EE001F0B2FA044B0020191C00F00DF8031CA9
S1130EF0181C00F047FAC04638E0FF1F80B582B0E6
S1130F0000AF7860FEE7C04680B500AFFFF76EFE25
S1130F1000F08AF8FEE7C04680B584B000AF3960BF
S1130F20FB1D011C19703B1D1A80214B5A68FB1DC7
S1130F30101C191C01220023FFF77EFC031C1A1C41
S1130F403B1C0F331A703B1C0F331B78002B01D052
S1130F501B2329E0C046164B5B78DBB2002BFAD08A
S1130F60134B00225A70124B59683B1D1B883A6878
S1130F70081C111C1A1C0123FFF7FCFC031C1A1C7F
S1130F803B1C0F331A703B1C0F331B78002B01D012
S1130F901B2309E0C046064B1B78DBB2002BFAD0BA
S1130FA0034B00221A700023181CBD4604B080BDF8
S1130FB03CE0FF1F80B584B000AF0A1CFB1D011C80
S1130FC01970BB1D1A703B1C0C33FA1D12781A7071
S1130FD03B1C0C33BA1D12785A70124B5A683B1CD6
S1130FE00C33101C191C02220123FFF725FC031CDF
S1130FF01A1C3B1C0F331A703B1C0F331B78002B3D
S113100001D01B2309E0C046064B5B78DBB2002B02
S1131010FAD0044B00225A700023181CBD4604B0B9
S113102080BDC0463CE0FF1F90B583B000AFFB1D00
S113103000221A70FFF750FAB64B181CFFF754FB46
S1131040021CB44B5A60B44B9B68181CFFF7C4FED7
S1131050B14B5B68181CFFF719FFBC1D0E20022161
S1131060FFF7A8FF031C2370BC1D2A201B21FFF7D8
S1131070A1FF031C2370BB1D1B78002B00D036E19D
S113108000E0C046BC1DA54B0120191C0122FFF73E
S113109043FF031C2370BC1DA14B0320191C012218
S11310A0FFF73AFF031C2370BC1D9E4B0520191C3F
S11310B00122FFF731FF031C2370984B1A789A4BD7
S11310C01A70974B1A78994B1A70964B1A78984B5A
S11310D01A70984B1B78002B2FD1934B1B785BB263
S11310E0D9175B184B409AB2904B1B785BB2D91757
S11310F05B184B409BB2D3189AB28D4B1B785BB2F2
S1131100D9175B184B409BB2D3189AB28A4B1A80FA
S1131110814BDB68181CFFF71BFE031C002B0CD152
S1131120844B01221A707C4B5B68181CFFF7A0FEED
S1131130794B9B68181CFFF75BFE7E4B1B78012BD9
S113114049D1794B1B785BB2DA179B1853409AB29A
S1131150764B1B785BB2D9175B184B409BB2D31804
S11311609AB2734B1B785BB2D9175B184B409BB296
S1131170D3189AB2704B1A80FB1DFA1D12780132F3
S11311801A70FB1D1B78032B25D96C4B1B881A1C6A
S1131190694B19886A4B5200D152684B1B88013342
S11311A09AB2664B1A80FB1D00221A70634B1A8890
S11311B0644B9A420FD95F4B02221A705F4B002294
S11311C01A80554B5B68181CFFF760FE524B9B68F6
S11311D0181CFFF70DFE574B1B78022B2FD1524BD7
S11311E01B785BB2DA179B1853409AB24F4B1B78AB
S11311F05BB2D9175B184B409BB2D3189AB24C4BD5
S11312001B785BB2D9175B184B409BB2D3189AB2C8
S1131210494B1A80404BDB68181CFFF799FD031CEF
S1131220002B0CD1434B03221A703B4B5B68181CF8
S1131230FFF71EFE384B9B68181CFFF7CDFD3D4B96
S11312401B78032B00D01CE7374B1B785BB2DA17F3
S11312509B1853409AB2354B1B785BB2D9175B1875
S11312604B409BB2D3189AB2314B1B785BB2D9175F
S11312705B184B409BB2D3189AB22F4B1A80FB1DBC
S1131280FA1D127801321A70FB1D1B78092B00D845
S1131290F7E62A4B1B881A1C294B5200D25A2A4BB8
S11312A01A80264B1B8801339AB2244B1A80FB1DEB
S11312B000221A70214B1A88224B9A4200D8E0E689
S11312C01C4B00221A701C4B00221A801E4B002259
S11312D01A801A4B00221A800F4B9B68181CFFF7C8
S11312E07BFD0D4B5B68181CFFF7D0FDC9E6094B6D
S11312F05B68181CFFF780FA074B5B68181CFFF744
S1131300C5FD054B9B68181CFFF772FDBD4603B075
S113131090BDC0463CE0FF1F00E0FF1F4BE0FF1FF5
S11313204CE0FF1F4DE0FF1FA05500206CE0FF1FA5
S11313306DE0FF1F4AE0FF1F44E0FF1F48E0FF1F6E
S113134070E0FF1F973A000046E0FF1F80B500AF32
S1131350BD4680BD80B584B000AF78607B68FB601B
S1131360FB6801225A70BD4604B080BD80B584B0CC
S113137000AF78607B68FB60FB6801221A70BD4691
S113138004B080BD38B5051C01F042F800F0E8FF58
S1131390084C2368002B02D0984700202060064C9C
S11313A02168002902D0884700222260281CFFF708
S11313B0A5FD38BD50E0FF1F54E0FF1F10B5041C0D
S11313C000F03EFF201C10BDF0B589B001901F1C39
S11313D00EAB0391079202901A78081C01990FAC86
S11313E001380026049225780670B14217D1119B6A
S11313F0B34214D1049B002B01D06F2D2FD0642D48
S113140002D0692D00D0A8E0022F02D1039802383F
S11314109FE0012F00D0A0E00398023894E0692DEA
S11314200ED004D8582D16D0642D1CD108E0752D8B
S113143004D0782D0FD06F2D15D110E0002712E0C5
S1131440019A002A0FDA80242606B2420DD05142B6
S11314500191029109E000273E1C102407E00027B7
S11314603E1C082403E0002600E001260A24009024
S1131470002006900298211CFFF722F8029805919B
S1131480211CFEF7D9FF059A0290092A01D83032AF
S113149005E0059A3732782D01D1059A5732009824
S11314A0069B02990138D2B20090027001330029E0
S11314B001D00693DEE7011C082C0BD10498002808
S11314C008D0302A06D00B1C013B302200931A703E
S11314D0069B0233079802280FD1002E01D1002F5A
S11314E002D0109901391091109A1192102C04D144
S11314F00498002801D0023A119203990098119A95
S1131500091A8918164A914226DC0099CA181199B9
S1131510121A8A4203DA013830220270F5E7102CDD
S11315200AD1049C002C07D0019B002B04D0421E3E
S11315303021023815700170002E02D001382D219F
S113154008E0012F02D101382B2103E0022F04D13E
S113155001382021017000E0002009B0F0BDC04630
S1131560FD010000F0B5B64C1E1CA5446B460A9064
S11315700B913E3320210020197008920590089A9F
S11315801578002D00D1F9E10898252100F0ADFE71
S11315900C90002811D1089800F0B6FE0599021CA1
S11315A008180590002A00D1E8E10B9808990A9ED2
S11315B0B047002800D0E1E1CEE00C9F089C0599DB
S11315C03A1B8B180593002A0CD10C980C9A43787B
S11315D001321D1E252D0CD000270121BC460D977C
S11315E0069119E00B9808990A9DA8470028ECD1A8
S11315F0B2E00C9A00210232012408920791069469
S11316003DE02B2B0BDC202B10D0232B00D0BAE099
S113161001239C46013213782B2BF2D1ABE12D2B05
S113162000D1A5E1302B00D0ADE004E00D9D012DEB
S1131630F0D00220A0E1069C002CEBD00220069002
S1131640E8E737680436FB43D80F937802321C1C52
S1131650683C0021042C00D8C1E0DDB26E2B00D020
S1131660C7E0013208926E2D00D149E100D900E1B2
S1131670632D00D159E107D8252D00D0F3E010AC3B
S113168025700996012619E0642D00D0EEE0321D84
S113169009923068032900D0F6E00799664600965F
S11316A001950291039790A9069A0D9BFFF78CFE72
S11316B0041E00D13FE1634F6F443E1A0698002890
S11316C03CD02023022800D130236F463E373B70A4
S11316D022782B2A04D02D2A02D0371C202A0BD1A1
S11316E0371C302B08D10B98211C01220A9B9847E8
S11316F0002831D00134771E069902290ED1612DBC
S113170001D0412D0AD1012F26DD0B98211C022284
S11317100A9DA84700281FD0023F0234351C079EAB
S1131720B54209DA69460B983E3101220A9B984773
S1131730002811D00135F2E73E1C00E0351C002ED4
S113174003D10698002819D115E0211C0B98321CEE
S11317500A9CA0470028F4D10122554205950DE1C9
S113176069463F3120240B9801220A9F0C70B84728
S11317700028F1D00135079FBD42F1DB059A5319CA
S11317800593099EFBE6171C2A2B00D0E1E0341DCB
S113179036680796002E03DA7342002507930695F0
S11317A07B780132261C284F0798B84200DDC2E03E
S11317B02E2B11D153782A2B00D142E70132002776
S11317C01C1C303C092C05D80A214F4301323F1917
S11317D01378F5E701203AE70027381C37E71B4D5B
S11317E0295D1B4D2C57002C00D136E7537801326C
S11317F033E76E2B0ADC632B2CD002DC582B30D160
S113180015E0642B13D0692B2BD110E0732B23D05C
S113181009DC6F2B0BD0702B23D1012378250827EB
S113182003219C461DE7752B01D0782B19D1002884
S113183015D0069C022C00D013E70123069310E771
S1131840BCFDFFFF3F020000FD0100005224000028
S11318504D240000002804D1002902D101E701270A
S1131860FFE6FF25FDE6582D65D116E0692D62D10E
S11318700DE7732D23D002D86F2D5CD10DE0752DAB
S11318800BD0782D57D108E0022901D100B204E72A
S1131890012900D001E740B2FFE6341D0994306805
S11318A0032906D0022901D180B202E0012900D126
S11318B0C0B2079E6246009201950296F2E6346831
S11318C0311D0991002C00D12F4C6346002B07D009
S11318D026780134002800D1F0E6BE4237DCEDE67C
S11318E0002808D0201C61463A1C00F0E8FC0028BF
S11318F02DD0061BE2E6201C00F006FD061CDDE6EA
S1131900351D09953468022907D003290AD0002916
S113191000D036E70598206033E76F461421CB5B8F
S113192023802EE7059A22602BE73368301D10AC24
S113193009902370A6E60C9800F0E6FC059E021CB4
S113194035180595002819D00B980C992FE63E1CE4
S1131950B4E600240794191C3039092900D922E778
S1131960079D0A236B430132581807901378F2E756
S1131970002706974EE601200D904BE6059891242A
S1131980A400A544F0BDC0464C240000F0B50027D7
S1131990A9B0059006910F9309920D970B9708979C
S11319A00A970C970497099D2C78002C00D103E327
S11319B0201C00F047FB002822D0099A013210783D
S11319C0099200F03FFB0028F7D1002F00D0F1E28C
S11319D0002106980A1C059CA047061C00F032FB57
S11319E0002803D0049B01330493F1E7701C04D155
S11319F02E98002800D1DFE201270698311CABE2C3
S1131A00252C1BD0002F19D1391C06983A1C059E91
S1131A10B047C1B2A1420AD006980122B0472E9F16
S1131A20002F00D1C8E2099D01350995C2E2049B4B
S1131A3009990133013104930991B4E71EAC201CC8
S1131A4000212822FFF7BAFC0998A54E4578666064
S1131A50281E25280CD1211C14A82822E57000F08A
S1131A603BFC099C00200234099407900E90D7E0B7
S1131A702A2D02D0099C013405E001230999237021
S1131A80099C88780234021C303A092A1FD800269F
S1131A900A256E433038013436182078031C303B55
S1131AA0092BF5D91EAD6E60002E0ED101235942CB
S1131AB0E97014A8291C2822013400F00DFC2B78AD
S1131AC00994FF2507960E969DE001266E701EA9C7
S1131AD0682804D06C280CD10320887007E0637850
S1131AE002228A70682B02D101258D7064196078F6
S1131AF001341EABD8705838202871D8FEF792FCF8
S1131B007270702B7070707070707015727070706D
S1131B10707270707070727211707019707270706F
S1131B20720003269E7078215BE09A78002A59D0CF
S1131B3056E09978002901D0FF20D87000231EAA0E
S1131B40D518FF2601332E72202BF8D1C121FE2097
S1131B505172107346E09D78002D01D0FF26DE708F
S1131B6063785E2B02D00134002102E0A3780121C6
S1131B7002345D2B07D11EAB2020D8746378013466
S1131B8001E0E3780334002B00D139E25D2B00D16E
S1131B9039E2DDB2EA081EAE0720B218184001256A
S1131BA08540107A2E1C6578064316722D2D14D1AB
S1131BB0A278002A11D05D2A0FD001339342E0DCD1
S1131BC0DEB2F0081EAD281807251D400126AE40E0
S1131BD0351C067A35430572EFE701342B1CD2E736
S1131BE0FF21D9701EAE311C282214A800F074FB0A
S1131BF06A467A327178107833780E910790F578C6
S1131C00013476680994002B06D1252D08D00F9A4B
S1131C10146804320F9200E000246E2D01D1ADE16E
S1131C200024002F01D001270AE00698391C022263
S1131C30059B9847002803D02E9F002FF3D1BBE1CA
S1131C40692D25D012D85B2D00D115E106D8252D9C
S1131C5000D1D3E0582D00D0AEE13EE0632D00D199
S1131C607CE0642D00D0A7E10A2012E0732D00D19E
S1131C70E6E007D86E2D00D180E16F2D00D09BE106
S1131C80082030E0752D2DD0782D00D094E124E08B
S1131C900020002F48D112A913AA11AD019102927C
S1131CA0311C0095059A069B00F0E3F9119E002E65
S1131CB005D12E98002828D101240B947CE1049BA3
S1131CC0129D9E190496002D05D080210A0690428B
S1131CD001D043422AE0031C28E0102003E0C04660
S1131CE0FFFFFF7F0A20002F1ED111AB13A912ADF5
S1131CF000930291069B311C0195059A00F0B9F9F5
S1131D00119E031C002E03D1D3E70127331C0DE0E1
S1131D10049A129D90190490002D07D080210E067C
S1131D20B34203D05B4201E001270023002C11D011
S1131D30079E032E09D8301CFEF774FB0602040626
S1131D40237002E0238000E023600C9D79427941F6
S1131D506A180C920A9801300A906EE00E980028D6
S1131D6000D10126002C33D000211191A6198F42F5
S1131D7000D01FE1B44219D02E9A002A04D0119841
S1131D80002811DA01230D93002106980A1C059DF1
S1131D90A8470890013009D008AB1D782570119927
S1131DA0013401311191E5E700240D94119E2E9A1E
S1131DB0002E00D1A0E0002A03D00D99002900D103
S1131DC0F8E0049A0C9C9019013404900C94D1E02E
S1131DD01194013E701C0CD0002106980A1C059B2E
S1131DE09847013E0890013003D0119D01351195AB
S1131DF0F0E7119E002E00D0BCE0DDE0002F00D003
S1131E00D5E0002106980A1C059EB047051C00F089
S1131E1019F9002803D0049C01340494F1E7252D1A
S1131E2008D001220698291CB0472E9A002A00D116
S1131E3042E7BCE004990131049101240B94B2E51A
S1131E4001230B93002F17D10698391C3A1C059DCA
S1131E50A847051C00F0F6F8002806D0049B0021D2
S1131E600133049306980A1CF1E701220698291C01
S1131E70059B984701220B92002C49D00021119117
S1131E808F4200D096E0013E351C711C24D02E9A5E
S1131E90002A04D0119B002B1CDC01200D90002192
S1131EA006980A1C059B98470890013014D008A98D
S1131EB00B7814A8DA088218089807210140127ACE
S1131EC001208840104207D02370119D0134013550
S1131ED01195D8E700260D96119B08AE3178002B9A
S1131EE005D02E9800280AD00D9A002A07D1012285
S1131EF00698059FB8472E9A002A5DD05AE0002024
S1131F00049E20700C9CF318013404930C942BE071
S1131F101194013E351C711C19D0002106980A1C2D
S1131F20059CA0470890013011D008A8017814AA94
S1131F30CB080898D418072303400121247A994038
S1131F40013E214203D0119D01351195E2E7119E16
S1131F50002E05D1069808990122059B984722E591
S1131F60049B089998190490002D03DB069801221C
S1131F70059DA8470A9901310A9114E5002C00D166
S1131F8011E5079A032A00D90DE5101CFEF74AFA59
S1131F90070A02076D4610214A5B228003E5049874
S1131FA0206000E568461026335C2370FBE40127BB
S1131FB00B97F8E40127F6E4002106980222059D18
S1131FC0A8470A99002805D0002928D10126704283
S1131FD00C9024E0002922D10B9A002A1FD00A99E0
S1131FE006980A1C059FB8470A99041C0222069801
S1131FF0B8470028EAD10698211C0122B8470EE010
S1132000FF211EABEDE5002900D1EBE520AD2A78D8
S113201028A8D6432E7001358542F8D1E2E50C9804
S113202029B0F0BD8022031C00B5002051008B4272
S113203004D803480122C3185878104000BDC04694
S1132040572400008022031C00B5002051008B425D
S113205004D803481022C3185878104000BDC04665
S113206057240000031C613B00B5192B00D820380D
S113207000BDF0B587B0059101930D990E9B0092B8
S113208000220A60071C1A60904216DB012814D053
S1132090242812DC0598904207DD009C0198111C4D
S11320A0A0470126041C351C02E0141C161C402504
S11320B000220392974209D002E0141C161C40250A
S11320C001214842391CFEF7B7F90390002302931B
S11320D004930598864200DD9EE0621C00D19BE0DB
S11320E06022154200D097E0681E0F28F1D8FEF751
S11320F08FF9082EF03FF0F0F052F0F0F0F0F0F02D
S1132100F052201CFFF79EFF021E09D00021009C04
S113211001980A1CA047041C049801300490D8E7D5
S11321202B2C07D1009D0198111CA8470136041CD3
S11321300225CEE702252D2CCBD1111C0198009B42
S113214098470D9901220136041C0A60C1E7002F4B
S113215002D00825102FBCD10825302CB9D100217C
S1132160009C01980A1CA0470136041C0425B0E712
S1132170582C01D0782C09D1002101980A1C009B0D
S113218098470136041C08251027A2E71025002FC4
S11321909FD108279DE7002F00D10A270398002824
S11321A005D101225042391CFEF746F90390201C48
S11321B03038092802D8B84211DB0BE0201CFFF7A5
S11321C031FF002806D0201CFFF74CFF011C3639D4
S11321D0B94203DD102D1DD120257AE73738029D41
S11321E0039C0123A54201D80E9B1B68029AC5B229
S11321F07A43D1438D4200D901230E9C80180021DB
S113220023600290009D01980A1CA8470136041C13
S113221010255EE740255CE734273D4003D10C9B45
S113222002951D6004E0049D013E0C9976190E6030
S1132230211C01980122009CA047029807B0F0BD20
S113224030B5C9B2031C1F2A31D9444203232340A9
S113225005D0D21AC51801700130A842FBD100295B
S113226005D00D060C042C430B02214319435409D9
S1132270031C002C0ED0251C013D19605960996087
S1132280D960196159619961D9612033002DF3D165
S11322906301C318D006400F07D0041C1D1C013C69
S11322A002C5002CFBD180001B18032422409D187A
S11322B0002A03D019700133AB42FBD130BD00B505
S11322C0C9B28218904205D0037801308B42F9D10B
S11322D0013800E0002000BD10B50023934203D074
S11322E0CC5CC4540133F9E710BD00B5C9B203781E
S11322F0421C002B03D08B4205D0101CF7E74B4245
S113230059414942084000BD00B5431E01331A78C3
S1132310002AFBD1181A00BD10B50B4C0B4B9C4284
S113232002D001CC8047F9E7094C0A48844202D024
S113233008CC9847F9E7084C08498C4202D004CCF1
S11323409047F9E710BDC046582500005825000005
S11323505825000058250000582500005825000085
S113236010B5084C084B9C4202D004CC9047F9E7C6
S1132370064C0748844203D0043C21688847F8E7A8
S113238010BDC046582500005825000058250000FF
S11323905825000000B588421FD0002A1DD0032311
S11323A0194207D1184205D19A4203D908C9043AFF
S11323B008C0F2E70123194209D1184207D19A4211
S11323C005D90B88023A038002310230E5E70B7825
S11323D0013A037001310130DFE700BD38B50B4D20
S11323E0002D11D000242B191968002906D02B19AF
S11323F058689A68FFF7CEFF0C34F4E75A68002A4D
S1132400F5D198680028F2D138BDC046582500009F
S1132410054B10B51C68002C04D0A068616888477F
S11324202468F8E710BDC04664E0FF1F054B181C84
S1132430002805D0854681B00020C043009001B03B
S1132440F746704700600020F7467047000100001F
S11324500001020000000300808080808080808072
S11324608090909090908080808080808080808018
S11324708080808080808080180404040404040424
S11324800404040404040404020202020202020218
S11324900202040404040404044343434343434145
S11324A04141414141414141414141414141414118
S11324B0414141040404040404232323232323214A
S11324C021212121212121212121212121212121F8
S11324D02121210404040480000000000000000005
S11324E000000000000000000000000000000000E8
S11324F000000000000000000000000000000000D8
S113250000000000000000000000000000000000C7
S113251000000000000000000000000000000000B7
S113252000000000000000000000000000000000A7
S11325300000000000000000000000000000000097
S11325400000000000000000000000000000000087
S10B255000000000000000007F
S11325585825000000E0FF1F0000000000000000F4
S10B2568000000000000000067
S9030ECD21
