S01B00004769744875624775794B4C343650726F6A6563742E68657821
S113000000600020E52500003522000041220000A8
S11300104122000041220000412200004122000050
S11300204122000041220000412200004122000040
S11300304122000041220000412200004122000030
S11300404122000041220000412200004122000020
S11300504122000041220000412200004122000010
S11300604D1C0000412200004122000041220000FA
S11300701519000041220000412200004122000025
S113008041220000412200004122000041220000E0
S113009041220000412200004122000041220000D0
S11300A041220000412200004122000041220000C0
S11300B041220000412200004122000041220000B0
S1130400FFFFFFFFFFFFFFFFFFFFFFFF7EFFFFFF79
S113041002B4714649084900095649008E4402BC99
S11304207047C04602B4714649084900095C490056
S11304308E4402BC7047C046002934D001230022F8
S113044010B488422CD301242407A14204D281424F
S113045002D209011B01F8E7E400A14204D281425F
S113046002D249005B00F8E7884201D3401A1A43DC
S11304704C08A04202D3001B5C0822438C08A04213
S113048002D3001B9C082243CC08A04202D3001BC9
S1130490DC082243002803D01B0901D00909E3E743
S11304A0101C10BC7047002801D00020C04307B4C2
S11304B0024802A14018029003BDC0461900000082
S11304C00029F0D003B5FFF7B9FF0EBC4243891AE7
S11304D01847C0467047C04680B584B000AF021CC0
S11304E0FB1D1A700C4B1B680133FB60FA680B4B45
S11304F09A4201D30A4BFB600A4B1B68FA689A4282
S113050007D0054B1B68FA1D12781A70024BFA6863
S11305101A60BD4604B080BD78E0FF1F74E0FF1F81
S113052054E0FF1F74E0FF1F80B582B000AFFB1DD5
S113053000221A701AE0124B1B68FA1D1978117008
S11305405A1C0F4B1A600E4B1A680E4B9A4202D378
S11305500B4B0D4A1A600D4B1B681A1C01231340E8
S113056004D1FB1D1B78181C00F084F9044B1A6895
S1130570074B1B689A42DED1BD4602B080BDC0461F
S113058074E0FF1F74E0FF1F54E0FF1F40E0FF1FF3
S113059078E0FF1F80B582B000AF1D4AFB1D1278C2
S11305A01A701C4B1B681A1C012313401BD0FB1D23
S11305B01B785BB2002B0ADA7B1D181C00F014F9BF
S11305C0031C002B03D1144B7A1D12781A70FB1DE7
S11305D01A782023134017D00F4B1B78DBB21A1C58
S11305E0BB1C1A8010E0FB1D1A78202313400BD08B
S11305F0BB1D00221A70084ABB1D12781A70BB1D5D
S11306001B78181CFFF768FFBD4602B080BDC046CA
S113061004A0064040E0FF1F07A0064080B500AFDD
S1130620174B00221A70174B1A7801218A431A704B
S1130630144B1A7802218A431A70134B124A127807
S1130640D2B208218A43D2B21A700F4B0E4A1278E2
S1130650D2B204210A43D2B21A700B4B0A4A12785E
S1130660D1B27F220A40D2B21A70074B064A1278DE
S1130670D2B220210A43D2B21A70BD4680BDC04610
S113068045E0FF1F40E0FF1F03A0064080B582B095
S113069000AF021CFB1D1A70054BFA1D12781A706C
S11306A0034B181C012100F005F8BD4602B080BDC3
S11306B000E0FF1F80B584B000AF78600A1CFB1C0B
S11306C01A703B1C0E3300221A80414B7A681A6060
S11306D03B1C0D3300221A7025E03B1C0C33002216
S11306E01A707B681A783B1C0C331A707B680133D0
S11306F07B603B1C0C331B78191C3B1C0E333A1CCF
S11307000E3212888A181A803B1C0E333A1C0E32A1
S11307101188FF220A401A803B1C0D333A1C0D320B
S1130720127801321A703A1C0D32FB1C12781B78B5
S11307309A42D2D33B1C0E331B88DBB25B42DAB243
S11307407B681A707B6801337B60FB1C1B78013368
S1130750DAB2204B1A70204B1A7801210A431A701E
S11307601D4B1A7802218A431A701B4B1A780421F4
S11307708A431A70194B194A1278D2B204218A4357
S1130780D2B21A70154B154A1278D2B208210A4314
S1130790D2B21A70124B1B78DAB23B1C0B331A70AC
S11307A0104B2B221A700D4B0C4A1278D2B2202116
S11307B08A43D2B21A70094B084A1278D2B2802105
S11307C049420A43D2B21A70BD4604B080BDC04645
S11307D048E0FF1F44E0FF1F40E0FF1F03A0064066
S11307E004A0064007A0064080B582B000AF786040
S11307F01D4B1B78002B2FD01C4B1B681A787B6871
S11308001A707B681B782B2B19D1194B1B685B075B
S1130810DB0FDBB201225340DAB2154B111C01226B
S11308200A4092001978042081430A431A70104B3D
S11308301B681A1C0423134001D000230FE00A4B49
S11308401B78013BDAB2084B1A70084B1B685A1C20
S1130850064B1A60002302E0FFF7E0FE0123181C98
S1130860BD4602B080BDC04644E0FF1F48E0FF1F04
S113087040E0FF1F80B584B000AF021CFB1D1A705E
S11308805A4BFB60FB1D1B782B2B1DD1FB681B688F
S11308901B07DB0FDBB201225340DBB21A1C01231E
S11308A01340DAB2FB68111C01220A40D200197805
S11308B0082081430A431A70FB681B681A1C08232A
S11308C0134001D000238CE0FB681B681A1C08232A
S11308D0134033D0464B474A1A60454B1B68FA1DF8
S11308E012781A705A1C424B1A60434BFA1D127844
S11308F01A70424B00221A70FB681A7810210A43BE
S11309001A70FB1D1B78DB431A1CC02313400ED145
S1130910FB681A7810218A431A70FB1D1A78302359
S11309201340DB08DBB20133DAB2344B1A70FB68D4
S11309301A7808218A431A70002352E0FB681B6866
S11309401A1C102313400AD0FB1D1B780233DAB2A1
S11309502A4B1A70FB681A7810218A431A70274BA5
S11309601B78002B3CD0244B1A78FB1D1B78D31822
S1130970DAB2214B1A70214B1B78013BDAB21F4BC0
S11309801A701E4B1B78002B15D1194B1B68002BBA
S113099003D18320FFF77AFE0BE0174B1B78002B63
S11309A003D08220FFF772FE03E0124B181C00F004
S11309B0E1FC012315E00E4B1B68002B10D00C4BFF
S11309C01A680F4B9A4208D2094B1B68FA1D127819
S11309D01A705A1C064B1A6002E0054B00221A607A
S11309E00023181CBD4604B080BDC04640E0FF1F74
S11309F04CE0FF1F00E0FF1F50E0FF1F45E0FF1F1A
S1130A003AE0FF1F80B500AF084B00221A70084B74
S1130A1000221A70074B084A1A60084B064A1A60EB
S1130A20FFF7FCFD0123181CBD4680BD40E0FF1FFD
S1130A3044E0FF1F74E0FF1F54E0FF1F78E0FF1F36
S1130A4080B500AFFFF770FDBD4680BD80B500AF37
S1130A50BD4680BD80B586B000AF78607B683B61E1
S1130A60364B00221A707B6802337B607B681A78ED
S1130A703B1C0E331A707B6801337B603B1C0E33C6
S1130A801B78002B04D03B1C0E331B78082B05D994
S1130A903B6985221A703B6901334AE03B1C1733DA
S1130AA000221A7033E07B681A783B1C0F331A70EB
S1130AB07B6801337B603B1C17331B783A1C0F3275
S1130AC011781F4AD1543B1C17331B789A001D4BD5
S1130AD0D2187B68101C191C01F05AF8031C7B60A7
S1130AE03B1C0F331B78002B04D03B1C0F331B78AB
S1130AF0082B05D93B6986221A703B69013318E03B
S1130B003B1C17333A1C1732127801321A703B1C03
S1130B100E331B783A1C173212789A42C3D33B1C0B
S1130B200E331A78054B1A703B6900221A703B6920
S1130B300133181CBD4606B080BDC0467CE0FF1FD3
S1130B40A0E0FF1F80E0FF1F80B584B000AF786095
S1130B501D4B1B78002B05D17B6888221A707B689B
S1130B6001332CE07B6800221A707B6801337B60C0
S1130B703B1C0F3300221A7019E03B1C0F331A7808
S1130B80124B9200D2583B1C0F331B781049CB5C9C
S1130B907968081C111C1A1C00F0E8FE031C7B6019
S1130BA03B1C0F333A1C0F32127801321A70064B79
S1130BB01B783A1C0F3212789A42DED37B68181CD9
S1130BC0BD4604B080BDC0467CE0FF1F80E0FF1F2F
S1130BD0A0E0FF1F80B500AF034B00221A70034B47
S1130BE0034A1A60BD4680BD7CE2FF1FB4E0FF1FCC
S1130BF0BCE0FF1F80B500AF024B00221A70BD4657
S1130C0080BDC0467CE2FF1F80B586B000AF78602F
S1130C107B683B61FFF7EEFF894B8A4A1A607B6869
S1130C2002337B607B681A78874B1A707B680133C8
S1130C307B60864A7B68101C191C00F0E7FE031CCD
S1130C407B60834A7B68101C191C00F0DFFE031CC8
S1130C507B60804A7B68101C191C00F0D7FE031CC3
S1130C607B607D4A7B68101C191C00F091FF031CFB
S1130C707B607B681A78794B1A707B6801337B60E0
S1130C807B681A78764B1A707B6801337B60754AEF
S1130C907B68101C191C00F0CBFE031C7B607B6876
S1130CA01A78714B1A707B6801337B606E4B1B782A
S1130CB0002B03D06C4B1B78082B04D93B1C153339
S1130CC085221A70B1E03B1C173300221A703B1CBA
S1130CD0163300221A703CE07B681A783B1C0D33F3
S1130CE01A707B6801337B603B1C16331B783A1CFB
S1130CF00D3211785D4AD1543B1C0D3319783B1CDD
S1130D0017333A1C173212788A181A703B1C1633A0
S1130D101B789A00564BD2187B68101C191C00F0E3
S1130D2037FF031C7B603B1C0D331B78002B04D066
S1130D303B1C0D331B78082B04D93B1C153386222E
S1130D401A7072E03B1C16333A1C163212780132C8
S1130D501A70454B1B783A1C163212789A42BBD350
S1130D60444B00221A60384B1B78002B35D03C4B87
S1130D701B781A1C0223134004D03B1C1533902209
S1130D801A7052E0354B1B78022B0DD0042B15D072
S1130D90012B1DD1324B1B78002B01D0364A00E0C9
S1130DA0364A344B1A6018E02D4B1B78002B01D0C7
S1130DB0334A00E0334A2F4B1A600EE0284B1B786D
S1130DC0002B01D0304A00E0304A2A4B1A6004E07C
S1130DD03B1C153386221A7027E03B1C17331B7803
S1130DE09AB21A4B19883B1C0E334A431A8000F0FE
S1130DF015F9031C3A1C0E3212889A4204D93B1C82
S1130E00153386221A7010E00D4B1A683B1C0E3302
S1130E101B88D2181E4B1A601E4B1A7801210A43F4
S1130E201A703B1C153300221A703B693A1C1532A8
S1130E3012781A703B690133181CBD4606B080BD98
S1130E40B4E0FF1FBCE0FF1F78E2FF1F70E2FF1F4A
S1130E5082E2FF1F80E2FF1FA8E0FF1FACE0FF1F3C
S1130E60ADE0FF1FB0E0FF1F72E2FF1F68E2FF1F4B
S1130E7040E2FF1FB8E0FF1FA9100000D9100000D6
S1130E80011100003111000059110000851100000A
S1130E9064E2FF1F7CE2FF1F80B500AF084B1B68B4
S1130EA01A1C0423134008D1054B1A7804210A4361
S1130EB01A70044B1A88044B1A80BD4680BDC04684
S1130EC07CE2FF1F82E2FF1F76E2FF1F80B584B041
S1130ED000AF7860214B1B681A1C0123134004D116
S1130EE03B1C0F3388221A702CE01C4B1B681A1C05
S1130EF00223134004D03B1C0F3301221A7021E05B
S1130F00174B1A68174B1A60174B00221A80174B9D
S1130F1000221A80114B1A7804218A431A700F4B4D
S1130F201A7810218A431A700C4B1A7808210A4344
S1130F301A700A4B1A7802210A431A703B1C0F33A9
S1130F4000221A707B683A1C0F3212781A707B6880
S1130F500133181CBD4604B080BDC0467CE2FF1FAF
S1130F60B4E0FF1F84E2FF1F60E2FF1F74E2FF1F73
S1130F7080B584B000AF7860134B1B681A1C012342
S1130F80134004D13B1C0F3388221A7010E00E4B1F
S1130F901B681A1C0223134004D13B1C0F3302228A
S1130FA01A7005E0FFF778FF3B1C0F3300221A701C
S1130FB07B683A1C0F3212781A707B680133181C54
S1130FC0BD4604B080BDC0467CE2FF1F80B584B03E
S1130FD000AF7860104B1B681A1C0223134001D029
S1130FE0012300E002233A1C0E3213800A4B1B68D3
S1130FF01A1C0123134003D13B1C0E3388221A8090
S11310003B1C0E331B88DAB27B681A707B68013391
S1131010181CBD4604B080BD7CE2FF1F80B500AF44
S113102080235B00181CBD4680BDC04680B584B0DB
S113103000AF7860194B1B681A1C0123134005D1BB
S11310407B6888221A707B68013322E0134B1B688B
S11310501A1C0223134005D07B6887221A707B6810
S1131060013316E07B6800221A707B680133FB6051
S1131070FA680B4B1B68101C191C00F065FD031C5F
S1131080FB60FA68074B1B88101C191C00F0E2FC7B
S1131090031C181CBD4604B080BDC0467CE2FF1F83
S11310A0B4E0FF1F60E2FF1F90B500AF084B1B6860
S11310B01A78084B1B7852B25BB2D017D90F041CB4
S11310C09A424C41231CDBB2DBB2181CBD4690BDD6
S11310D0A8E0FF1FB0E0FF1F80B500AF064B1B6800
S11310E01978064B1A78002391425B41DBB2DBB2DC
S11310F0181CBD4680BDC046A8E0FF1FB0E0FF1F1E
S113110090B500AF084B1B681A88084B1B8812B2B5
S11311101BB2D017D90F041C9A424C41231CDBB2DA
S1131120DBB2181CBD4690BDA8E0FF1FB0E0FF1F56
S113113080B500AF064B1B681988064B1A8800233C
S113114091425B41DBB2DBB2181CBD4680BDC04698
S1131150A8E0FF1FB0E0FF1F90B500AF074B1B686E
S11311601A68074B1B68D017D90F041C9A424C41CC
S1131170231CDBB2DBB2181CBD4690BDA8E0FF1FE8
S1131180B0E0FF1F80B500AF064B1B681968064B23
S11311901A68002391425B41DBB2DBB2181CBD46E6
S11311A080BDC046A8E0FF1FB0E0FF1F80B500AFC0
S11311B0054B1B681A1C0223134002D000F006F8EA
S11311C000E0C046BD4680BD7CE2FF1F90B583B001
S11311D000AF514B1B88002B06D04F4B1B88013BA3
S11311E09AB24D4B1A8094E04C4B1A884A4B1A80A1
S11311F0BB1D00221A7023E0BB1D1A787B1D4849D1
S11312008A5C1A70474B1968BB1D1A78464B9200CA
S1131210D2587B1D1B78081C111C1A1C00F080FB83
S11312207B1D7A1D12781A703E4B1A687B1D1B7841
S1131230D2183C4B1A60BB1DBA1D127801321A70C9
S11312403A4B1B78BA1D12789A42D5D3384B1B8877
S113125001339AB2364B1A80324B1A68354B1B68ED
S11312609A420BD3344B1A682E4B1A60334B1A78BC
S113127008218A431A702E4B00221A802F4B1B68B8
S11312801A1C0823134043D12C4B1B681A1C04233B
S1131290134026D12A4B1B68002B22D0284B1B68F5
S11312A0FC1D9847031C2370264B1B78022B06D188
S11312B0FB1D1B785A425341DAB2FB1D1A70FB1D09
S11312C01B78002B08D01D4B1B681A1C10231340DD
S11312D007D0FFF7E1FD04E0184B1A7810210A4308
S11312E01A70164B1B681A1C0423134011D0164B9A
S11312F01B88002B05D1114B1A7802218A431A70DE
S113130007E0114B1B88013B9AB20F4B1A8000E097
S1131310C046BD4603B090BD74E2FF1F80E2FF1FCC
S113132068E2FF1F84E2FF1F40E2FF1F72E2FF1F1B
S113133060E2FF1F64E2FF1FB4E0FF1F7CE2FF1FB7
S1131340B8E0FF1F78E2FF1F76E2FF1F80B500AF11
S1131350FFF77CFBFFF73EFC00F0ECF9FFF752FBD4
S1131360031C002B01D1002300E00123181CBD46FF
S113137080BDC04680B584B000AF7860002000F026
S1131380D3FB7B681A783B1C0A331A703B1C0A3364
S11313901B78C02B00D18EE010DC062B00D180E03E
S11313A005DC042B1AD0052B00D170E08AE00B2B4E
S11313B044D0102B56D00A2B1AD083E0C52B21D051
S11313C005DCC22B33D02BDBC32B22D07AE0C92B14
S11313D03ED0D32B54D0C62B4BD073E0012000F069
S11313E0A3FB7B68181C00F003F9031CFB6070E08E
S11313F0012000F099FB7B68181CFFF72BFB031CF2
S1131400FB6066E07B68181CFFF79EFB031CFB6017
S11314105FE07B68181CFFF7D9FD031CFB6058E0F4
S11314207B68181CFFF752FD031CFB6051E07B68CE
S1131430181CFFF79DFD031CFB604AE0012000F02F
S113144073FB7B68181CFFF7DFFB031CFB6040E0A9
S1131450012000F069FB7B68181CFFF7E7FD031C03
S1131460FB6036E07B68181C00F072F9031CFB601B
S11314702FE07B68181C00F0D7F9031CFB6028E000
S11314807B68181C00F0E6F9031CFB6021E00120D6
S113149000F04AFB7B68181C00F0E4F8031CFB60B6
S11314A017E0012000F040FB7B68181C00F00EF9E7
S11314B0031CFB600DE07B68181C00F023F8031C80
S11314C0FB6006E07B6881221A707B680133FB6055
S11314D0C046FA687B689A420FD0FA687B68D21AD1
S11314E03B1C0B331A707A683B1C0B331B78101CA3
S11314F0191CFFF7DFF8012300E00023181CBD4688
S113150004B080BD90B587B000AF78607B687B6124
S11315107B6900221A707B6901337B617B6903223A
S11315201A707B6901337B617B6900221A707B69C5
S113153001337B617B6901221A707B6901337B6112
S11315407B6902221A707B6901337B617B6900220B
S11315501A707B6901337B617B693A221A707B695B
S113156001337B613C1C1234FFF758FD031C2380BC
S11315703B1C12333A1C123212881A807A693B1CC3
S113158012331B88101C191C00F064FA031C7B61C5
S11315907B69181C002100F05DFA031C7B61134B6E
S11315A0FB603B1C123300221A8014E0FB681A789B
S11315B07B691A707B6901337B61FB681B78002BA4
S11315C002D0FB680133FB603B1C12333A1C12321D
S11315D0128801321A803B1C12331B88182BE5D960
S11315E07B69181CBD4607B090BDC0468C3900000D
S11315F080B586B000AF78607B687B617B6802331E
S11316007B607B681A783B1C0F331A707B6801334C
S11316107B603A1C10327B68101C191C00F0B8FA6D
S1131620031C7B603B1C0F331B783A2B05D97B6969
S113163084221A707B69013310E07B6900221A70DE
S11316407B6901337B613A693B1C0F331B787969F1
S1131650081C111C1A1C00F089F9031C181CBD4637
S113166006B080BD80B586B000AF78607B687B61D2
S11316707B6802337B607B681A783B1C0B331A70DF
S11316807B6801337B603A1C0C327B68101C191C8C
S113169000F07EFA031C7B60F9683B1C0B331B785B
S11316A07A68081C111C1A1C00F088F93B1C1333BF
S11316B000221A707B693A1C133212781A707B6903
S11316C00133181CBD4606B080BDC04680B586B047
S11316D000AF78607B687B617B6802337B607B68EA
S11316E01A783B1C0B331A707B6801337B603A1CFD
S11316F00C327B68101C191C00F04AFA031C7B6036
S1131700F9683B1C0B331B787A68081C111C1A1CE3
S113171000F0B4F93B1C133300221A707B693A1CA5
S1131720133212781A707B690133181CBD4606B057
S113173080BDC04680B500AF034BFF221A70034B37
S1131740FF221A70BD4680BDBCE1FF1FD2E1FF1F1E
S113175080B586B000AF78607B687B612D4B1B78C9
S1131760FF2B05D07B6987221A707B6901334CE01B
S11317707B6801337B607B681A783B1C0F331A70DB
S11317807B6801337B607B681A783B1C0E331A70CC
S11317907B6801337B603B1C0F331B78013BDAB25F
S11317A03B1C0F331A703B1C0F331B78102B05D9CD
S11317B07B6985221A707B69013326E03B1C0E335A
S11317C01A78144B1A703B1C0F331B781A1C124BDB
S11317D01A803B1C0F331B78002B0BD00F4B3B6143
S11317E03B1C0F331B7839697A68081C111C1A1CBE
S11317F000F0E4F80A4BFE221A700A4B00221A7019
S11318007B6900221A707B690133181CBD4606B03F
S113181080BDC046BCE1FF1FD0E1FF1FC0E1FF1F38
S1131820D2E1FF1FD3E1FF1F80B582B000AF786023
S11318307B6800221A707B6801337B60044B1A7842
S11318407B681A707B680133181CBD4602B080BDEA
S1131850D2E1FF1F80B586B000AF78607B687B6102
S1131860294B1B78FF2B05D07B6987221A707B6973
S1131870013344E07B6801337B607B681A783B1C4E
S11318800F331A707B6801337B607B681A783B1CCA
S11318900E331A707B6801337B603B1C0F331B785B
S11318A03A2B05D97B6984221A707B69013326E0BF
S11318B03B1C0E331B781A1C3B1C0F331B78D218AD
S11318C0124B1B789A4205DD7B6986221A707B696C
S11318D0013314E07B6900221A707B6901337B6158
S11318E00B4B3B613B1C0F331B7879693A69081C2D
S11318F0111C1A1C00F03AF8031C7B617B69181C4C
S1131900BD4606B080BDC046BCE1FF1FD3E1FF1F4A
S1131910C0E1FF1F80B500AFFEF73CFEBD4680BDB1
S113192080B586B000AFF860B960FB1D1A70BB6863
S11319307B61FB683B6109E07B691A783B691A703B
S11319403B6901333B617B6901337B61FB1D1B7880
S11319505A1E9341DBB2FA1DF91D09780139117041
S1131960002BE9D1BD4606B080BDC04680B586B027
S113197000AFF860B960FB1D1A70BB687B61FB683F
S11319803B6109E07B691A783B691A703B69013352
S11319903B617B6901337B61FB1D1B785A1E9341BC
S11319A0DBB2FA1DF91D097801391170002BE9D158
S11319B03B69181CBD4606B080BDC04680B586B0E4
S11319C000AFF860B960FB1D1A70BB687B61FB68EF
S11319D03B6109E07B691A783B691A703B69013302
S11319E03B617B6901337B61FB1D1B785A1E93416C
S11319F0DBB2FA1DF91D097801391170002BE9D108
S1131A007B69181CBD4606B080BDC04680B582B057
S1131A1000AF786039607A683B68101C191C022298
S1131A20FFF7CCFF031C181CBD4602B080BDC046A6
S1131A3080B582B000AF786039607A683B68101C6A
S1131A40191C0422FFF7BAFF031C181CBD4602B080
S1131A5080BDC04680B582B000AF78600A1CBB1C54
S1131A601A807A68BB1C101C191C0222FFF77EFF27
S1131A70031C181CBD4602B080BDC04680B588B0AA
S1131A8000AFF860B960FB1D1A70BB68FB61FB68AE
S1131A90BB61FB1D1B78FA69D3187B6134E03B1CE6
S1131AA013337A6912781A707B6901337B613B1CAA
S1131AB01233FA6912781A70FB690133FB613B1C1B
S1131AC01133BA6912781A703B1C12333A1C133260
S1131AD01B7812781340DBB2DAB23B1C13331B7849
S1131AE0DB43DBB2391C113109780B40DBB2134301
S1131AF0DAB23B1C12331A70BB693A1C12321278E8
S1131B001A70BB690133BB61FB1D1B785A1E9341DC
S1131B10DBB2FA1DF91D097801391170002BBED111
S1131B20BD4608B080BDC04680B582B000AF021C7F
S1131B30FB1D1A70034BFA1D12781A70BD4602B0D1
S1131B4080BDC046D4E1FF1F80B582B000AF78608D
S1131B5039600E4B1B78002B09D07A683B1C101C93
S1131B60191C0422FFF702FF031C7B6008E07A685B
S1131B703B1C101C191C0222FFF7F8FE031C7B609F
S1131B807B68181CBD4602B080BDC046D4E1FF1F6F
S1131B9080B582B000AF786039600E4B1B78002BA3
S1131BA009D07A683B68101C191C0422FFF706FF51
S1131BB0031C3B6008E07A683B68101C191C022275
S1131BC0FFF7FCFE031C3B603B68181CBD4602B0DB
S1131BD080BDC046D4E1FF1F80B500AF184A184944
S1131BE0184BCB588021C9001943164BD150164BC2
S1131BF00022DA70144B00221A70134B80225A70A0
S1131C00114B00221A72104B00225A720E4B1022F2
S1131C109A720D4B00229A700B4BDF221A710A4BF9
S1131C20C0225A71084BDB79074B0022DA72064B4B
S1131C3000229A71044B0022DA70BD4680BDC04672
S1131C40007004403410000000A0064090B583B03A
S1131C5000AF7E4B1B687B607D4BDB78DCB27C4B3A
S1131C607B4AD278D2B2D2B212218A43D1B2E2B242
S1131C700A43D2B2D2B2DA70754B9B78DBB21A1C2B
S1131C802023134000D1C2E0714B9B78DBB21A1CB5
S1131C901023134000D179E0221C012313401DD0EE
S1131CA06B4B6B4A9278D2B220218A43D2B29A709B
S1131CB0674B674A9278D2B210218A43D2B29A70A3
S1131CC07B6800221A817B6800225A807B681B781B
S1131CD001229343DAB27B681A70B4E07B681B89F3
S1131CE0002B0ED07B681B89013B9AB27B681A815A
S1131CF0574A7B68DB68197811715A1C7B68DA6073
S1131D00A1E07B685B88002B1FD07B685B88012B7C
S1131D1008D14F4B4E4A9278D2B208210A43D2B22C
S1131D209A7007E04A4B4A4A9278D2B208218A4311
S1131D30D2B29A70464B464A9278D2B210218A4364
S1131D40D2B29A70424B1B797DE07B681B780122EA
S1131D509343DAB27B681A707B685B78012B0FD1EE
S1131D603B4B3B4A9278D2B220218A43D2B29A703A
S1131D70374B374A9278D2B210218A43D2B29A7042
S1131D807B681B69181C00F085FD5CE07B685B8840
S1131D90013B9AB27B685A807B685B88002B0CD02D
S1131DA07B685B88012B1FD1294B294A9278D2B2D8
S1131DB008210A43D2B29A7016E07B681B7801228C
S1131DC09343DAB27B681A70214B214A9278D2B2DB
S1131DD020218A43D2B29A701D4B1D4A9278D2B206
S1131DE008218A43D2B29A707B685B68184A1279D8
S1131DF0D2B21A705A1C7B685A607B685B88002BCD
S1131E0021D17B681B69181C00F050FD1BE0221CCB
S1131E101023134017D07B6800221A817B680022AC
S1131E205A807B6801225A707B681B780122934395
S1131E30DAB27B681A70064B054A9278D2B2102146
S1131E408A43D2B29A70BD4603B090BDF8E1FF1F39
S1131E500060064080B584B000AF7860384BFB600A
S1131E60FB687A681A61374BFA681A60FB680022CB
S1131E701A70FB6801225A70FB6800225A80FB68C2
S1131E8000221A81304A3049304BCB584021194343
S1131E902E4BD1502E4B00229A702D4B40229A711A
S1131EA02B4B0222DA702B4B2A4A516E2A4A0A40E3
S1131EB0A021C9000A435A66264B264A116E264AB7
S1131EC00A40A021C9000A431A66244A2349C223AE
S1131ED09B00CB58FF218B4380211943C2239B00D5
S1131EE0D1501E4B1D4A1268802149000A431A60D2
S1131EF0174B00225A71164B00229A71144B082278
S1131F001A72134B00225A70114B114A9278D2B2B2
S1131F10D2B2802149420A43D2B2D2B29A700C4B57
S1131F200B4A9278D2B240210A43D2B29A700C4B37
S1131F30FA681A60FB68181CBD4604B080BDC04630
S1131F40E4E1FF1FF8E1FF1F0070044034100000BB
S1131F500060064000D00440FFF8FFFE00E100E00E
S1131F60D8E1FF1F80B582B000AF7860094B002232
S1131F709A70094B00221A60084A0849084BCB584A
S1131F804021181C8843011C054BD150BD4602B0AA
S1131F9080BDC04600600640D8E1FF1F00700440C9
S1131FA03410000080B586B000AFF860B960111C31
S1131FB01A1CBB1D19807B1D1A70FB687B61BB1D3D
S1131FC01B88002B01D100237FE07B695B78012B08
S1131FD012D1404BDB78DBB21A1C2023134009D109
S1131FE07B691B781A1C0123134003D17B691B896D
S1131FF0002B0DD0082368E07B691B781A1C012391
S1132000134003D17B691B89002B01D008235CE0BA
S11320103B1C1333EFF3108072B618702E4B1B78F1
S1132020DBB20133DBB22C4A191C1170012B04D131
S11320303B1C13331A78294B1A707B691B780122D5
S11320401343DAB27B691A707B69BA68DA607B6918
S1132050BA1D12881A817B697A1D12785A701D4B39
S11320601C4A9278D2B2D2B210210A43D2B2D2B26E
S11320709A70184B9B78DBB21A1C2023134008D0AB
S1132080144B144A9278D2B204210A43D2B29A7001
S113209009E0104B0F4A9278D2B2D2B220210A43FF
S11320A0D2B2D2B29A700B4B3A221A710A4B1B78F5
S11320B0DBB2013BDBB2084A191C1170002B03D1BF
S11320C0064B187880F310880023181CBD4606B010
S11320D080BDC04600600640FCE1FF1F88E2FF1F90
S11320E080B586B000AFF860B960111C1A1CBB1D26
S11320F019807B1D1A70FB687B61BB1D1B88002B3C
S113210001D1002385E07B1D1B78002B01D18123A5
S11321107FE07B695B78012B12D1404BDB78DBB22B
S11321201A1C2023134009D17B691B781A1C012334
S1132130134003D17B695B88002B0DD0082368E032
S11321407B691B781A1C0123134003D17B695B88CC
S1132150002B01D008235CE03B1C1333EFF3108009
S113216072B618702E4B1B78DBB20133DBB22C4AEB
S1132170191C1170012B04D13B1C13331A78294B01
S11321801A707B691B7801221343DAB27B691A70D7
S11321907B69BA685A607B69BA1D12885A807B6968
S11321A07A1D12785A701D4B1C4A9278D2B2D2B260
S11321B010210A43D2B2D2B29A70184B9B78DBB288
S11321C01A1C2023134008D0144B144A9278D2B21C
S11321D004210A43D2B29A7009E0104B0F4A927854
S11321E0D2B2D2B220210A43D2B2D2B29A700B4BED
S11321F03B221A710A4B1B78DBB2013BDBB2084A63
S1132200191C1170002B03D1064B187880F3108829
S11322100023181CBD4606B080BDC04600600640C1
S1132220FCE1FF1F88E2FF1F80B500AFFFF78EF8C7
S1132230BD4680BD80B500AF00F028FBBD4680BD23
S113224080B500AFFFBEBD4680BDC04680B500AFBF
S1132250384A3949394BD150394A88235B01002126
S1132260D150374A374BC0218902D150344A3449BE
S1132270354BCB58C82189011943334BD150334BCB
S11322809B78DBB21A1C0823134007D02F4B2F4A2C
S11322909278D2B208210A43D2B29A70284A294BC2
S11322A00021D150264A2649294BC958294B1940A7
S11322B0274BD150224B224A1268C02109030A43FA
S11322C01A601F4A1E49224BC958234B0B408021D8
S11322D0490419431E4BD150204B06221A701F4B40
S11322E01E4A5278D1B240220A40D2B25A701B4BD5
S11322F01A4AD278D1B21F220A40D2B2DA70184BED
S113230080221A70154B00221A71144B00225A7144
S1132310C046124B9B79DBB21A1C10231340F8D031
S1132320C0460E4B9B79DBB21A1C0C231340F8D128
S1132330BD4680BD00E000E000000000080D000084
S113234000700440441000003810000000D0074022
S113235004100000FFFFFEFFFFFFFFFC00400640EB
S11323600050064080B500AF4B4B4B4A11694B4AB5
S11323700A40E021C9000A431A61494B484A52798C
S1132380D2B21F218A43D2B25A71454B444A1279C0
S1132390D2B207218A43D2B21A71424B414A12780F
S11323A0D2B2D2B273218A43D2B250210A43D2B2FA
S11323B0D2B21A703B4B3B4A5278D2B2D2B26321AA
S11323C08A43D2B240210A43D2B2D2B25A70354BB8
S11323D0344A9278D2B219218A43D2B29A70324BDB
S11323E000221A70314A3149314BC958314B0B40E4
S11323F08021C90419432E4BD150274B264A5168DA
S1132400264A0A40802189000A435A60224B224A04
S11324109168224A0A40802189000A439A60264B27
S1132420254A1268802149010A431A60224A224936
S1132430C3239B00CB58FF21181C8843011CC323D2
S11324409B00D150144B144A116D144A0A40E021E8
S1132450C9000A431A65184A1749C1239B00C95881
S1132460164B1940C1239B00D150002000F066F8A0
S1132470134B5B68181C00F095F8002000F022F85C
S11324800F4B9B68181C00F04DF8FFF7A5FBFFF7F6
S1132490CBFE62B6BD4680BD00900440FFF8FFFE4F
S11324A000F0074000D0074000E0074000700440FF
S11324B004100000FFFFFFF300E100E0FFFF00FF56
S11324C0D8E1FF1F80B584B000AF7860104BFB608B
S11324D0FB687A681A600F4B0E4A526920210A433E
S11324E05A610C4B0B4A126820218A431A600A4B2A
S11324F0094A5169094A0A40802149000A435A613C
S1132500074BFA689A60FB68181CBD4604B080BD8E
S113251000E2FF1FC0F00F4000C00440FFF8FFFEC0
S1132520D8E1FF1F80B582B000AF7860024B202253
S11325305A60BD4602B080BDC0F00FF880B584B0CB
S113254000AF7860114BFB60FB687A681A60104B2F
S11325500F4A5269802189050A435A610C4B0C4A7F
S113256011680C4A0A401A600B4B0B4A516F0B4A14
S11325700A40802149000A435A67094BFA685A60A5
S1132580FB68181CBD4604B080BDC04604E2FF1FB2
S113259000F10F40FFFFFFDF00D00440FFF8FFFE13
S11325A0D8E1FF1F80B582B000AF7860034B802272
S11325B092055A60BD4602B080BDC04600F10FF8D6
S11325C080B500AF054A064BD31A054A101C0021FA
S11325D01A1C00F093F9BD4680BDC04690E2FF1F6F
S11325E000E0FF1F01F0C2F9FFF730FEFFF7E8FF3C
S11325F001F094F901F030F901F0C6F9044B002020
S1132600191C00F00DF8031C181C00F05BF9C046FF
S113261008E2FF1F80B582B000AF7860FEE7C046D5
S113262080B500AFFFF79EFE00F08AF8FEE7C046D3
S113263080B584B000AF3960FB1D011C19703B1DCF
S11326401A80214B5A68FB1D101C191C01220023FF
S1132650FFF7A8FC031C1A1C3B1C0F331A703B1C0D
S11326600F331B78002B01D01B2329E0C046164BE7
S11326705B78DBB2002BFAD0134B00225A70124B5A
S113268059683B1D1B883A68081C111C1A1C01233D
S1132690FFF726FD031C1A1C3B1C0F331A703B1C4E
S11326A00F331B78002B01D01B2309E0C046064BD7
S11326B01B78DBB2002BFAD0034B00221A700023E4
S11326C0181CBD4604B080BD0CE2FF1F80B584B069
S11326D000AF0A1CFB1D011C1970BB1D1A703B1CAA
S11326E00C33FA1D12781A703B1C0C33BA1D127885
S11326F05A70124B5A683B1C0C33101C191C0222D2
S11327000123FFF74FFC031C1A1C3B1C0F331A70E8
S11327103B1C0F331B78002B01D01B2309E0C04660
S1132720064B5B78DBB2002BFAD0044B00225A70C4
S11327300023181CBD4604B080BDC0460CE2FF1F38
S113274090B583B000AF424B00221A60414B002287
S11327501A60414B181CFFF77DFB021C3E4B5A606C
S1132760FC1D0E200221FFF7B1FF031C2370FC1D8A
S11327702A200321FFF7AAFF031C2370FB1D1B78EB
S1132780002B53D1FC1D354B0120191C0122FFF7EE
S11327904FFF031C2370FC1D314B0320191C012225
S11327A0FFF746FF031C2370FC1D2E4B0520191C4C
S11327B00122FFF73DFF031C2370FC1D2A4B02205E
S11327C0191C0122FFF734FF031C2370FC1D274B47
S11327D00420191C0122FFF72BFF031C2370FC1D8E
S11327E0234B0620191C0122FFF722FF031C237030
S11327F0FC1D204B0E20191C0122FFF719FF031C9E
S11328002370FEF71DF9FEF7D1FC144B1A781A4B0E
S11328101A70134B1A78194B1A70124B1A78184BFA
S11328201A70144B1A78174B1A70ABE70A4B5B6893
S1132830181CFFF797FB144B5B68181CFFF7B2FEDC
S1132840114B9B68181CFFF76DFEBD4603B090BD8D
S11328501CE2FF1F20E2FF1F0CE2FF1F14E2FF1F18
S113286015E2FF1F16E2FF1F17E2FF1F18E2FF1F0A
S113287019E2FF1F24E2FF1F8CE2FF1F89E2FF1F02
S11328808BE2FF1F8AE2FF1FD8E1FF1F80B500AF74
S1132890BD4680BD80B584B000AF78607B68FB60C6
S11328A0FB6801225A70BD4604B080BD80B584B077
S11328B000AF78607B68FB60FB6801221A70BD463C
S11328C004B080BD38B5051C01F042F800F0E8FF03
S11328D0084C2368002B02D0984700202060064C47
S11328E02168002902D0884700222260281CFFF7B3
S11328F091FE38BD28E2FF1F2CE2FF1F10B5041C17
S113290000F03EFF201C10BDF0B589B001901F1CE3
S11329100EAB0391079202901A78081C01990FAC30
S113292001380026049225780670B14217D1119B14
S1132930B34214D1049B002B01D06F2D2FD0642DF2
S113294002D0692D00D0A8E0022F02D103980238EA
S11329509FE0012F00D0A0E00398023894E0692D95
S11329600ED004D8582D16D0642D1CD108E0752D36
S113297004D0782D0FD06F2D15D110E0002712E070
S1132980019A002A0FDA80242606B2420DD0514261
S11329900191029109E000273E1C102407E0002762
S11329A03E1C082403E0002600E001260A240090CF
S11329B0002006900298211CFDF782FD02980591E3
S11329C0211CFDF739FD059A0290092A01D83032FD
S11329D005E0059A3732782D01D1059A57320098CF
S11329E0069B02990138D2B200900270013300298B
S11329F001D00693DEE7011C082C0BD104980028B3
S1132A0008D0302A06D00B1C013B302200931A70E8
S1132A10069B0233079802280FD1002E01D1002F04
S1132A2002D0109901391091109A1192102C04D1EE
S1132A300498002801D0023A119203990098119A3F
S1132A40091A8918164A914226DC0099CA18119964
S1132A50121A8A4203DA013830220270F5E7102C88
S1132A600AD1049C002C07D0019B002B04D0421EE9
S1132A703021023815700170002E02D001382D214A
S1132A8008E0012F02D101382B2103E0022F04D1E9
S1132A9001382021017000E0002009B0F0BDC046DB
S1132AA0FD010000F0B5B64C1E1CA5446B460A900F
S1132AB00B913E3320210020197008920590089A4A
S1132AC01578002D00D1F9E10898252100F0ADFE1C
S1132AD00C90002811D1089800F0B6FE0599021C4C
S1132AE008180590002A00D1E8E10B9808990A9E7D
S1132AF0B047002800D0E1E1CEE00C9F089C059986
S1132B003A1B8B180593002A0CD10C980C9A437825
S1132B1001321D1E252D0CD000270121BC460D9726
S1132B20069119E00B9808990A9DA8470028ECD152
S1132B30B2E00C9A00210232012408920791069413
S1132B403DE02B2B0BDC202B10D0232B00D0BAE044
S1132B5001239C46013213782B2BF2D1ABE12D2BB0
S1132B6000D1A5E1302B00D0ADE004E00D9D012D96
S1132B70F0D00220A0E1069C002CEBD002200690AD
S1132B80E8E737680436FB43D80F937802321C1CFD
S1132B90683C0021042C00D8C1E0DDB26E2B00D0CB
S1132BA0C7E0013208926E2D00D149E100D900E15D
S1132BB0632D00D159E107D8252D00D0F3E010ACE6
S1132BC025700996012619E0642D00D0EEE0321D2F
S1132BD009923068032900D0F6E00799664600960A
S1132BE001950291039790A9069A0D9BFFF78CFE1D
S1132BF0041E00D13FE1634F6F443E1A069800283B
S1132C003CD02023022800D130236F463E373B704E
S1132C1022782B2A04D02D2A02D0371C202A0BD14B
S1132C20371C302B08D10B98211C01220A9B984792
S1132C30002831D00134771E069902290ED1612D66
S1132C4001D0412D0AD1012F26DD0B98211C02222F
S1132C500A9DA84700281FD0023F0234351C079E56
S1132C60B54209DA69460B983E3101220A9B98471E
S1132C70002811D00135F2E73E1C00E0351C002E7F
S1132C8003D10698002819D115E0211C0B98321C99
S1132C900A9CA0470028F4D10122554205950DE174
S1132CA069463F3120240B9801220A9F0C70B847D3
S1132CB00028F1D00135079FBD42F1DB059A531975
S1132CC00593099EFBE6171C2A2B00D0E1E0341D76
S1132CD036680796002E03DA73420025079306959B
S1132CE07B780132261C284F0798B84200DDC2E0E9
S1132CF02E2B11D153782A2B00D142E70132002721
S1132D001C1C303C092C05D80A214F4301323F19C1
S1132D101378F5E701203AE70027381C37E71B4D05
S1132D20295D1B4D2C57002C00D136E75378013216
S1132D3033E76E2B0ADC632B2CD002DC582B30D10A
S1132D4015E0642B13D0692B2BD110E0732B23D007
S1132D5009DC6F2B0BD0702B23D101237825082796
S1132D6003219C461DE7752B01D0782B19D100282F
S1132D7015D0069C022C00D013E70123069310E71C
S1132D80BCFDFFFF3F020000FD010000A23900006E
S1132D909D390000002804D1002902D101E7012750
S1132DA0FFE6FF25FDE6582D65D116E0692D62D1B9
S1132DB00DE7732D23D002D86F2D5CD10DE0752D56
S1132DC00BD0782D57D108E0022901D100B204E7D5
S1132DD0012900D001E740B2FFE6341D09943068B0
S1132DE0032906D0022901D180B202E0012900D1D1
S1132DF0C0B2079E6246009201950296F2E63468DC
S1132E00311D0991002C00D12F4C6346002B07D0B3
S1132E1026780134002800D1F0E6BE4237DCEDE626
S1132E20002808D0201C61463A1C00F0E8FC002869
S1132E302DD0061BE2E6201C00F006FD061CDDE694
S1132E40351D09953468022907D003290AD00029C1
S1132E5000D036E70598206033E76F461421CB5B3A
S1132E6023802EE7059A22602BE73368301D10ACCF
S1132E7009902370A6E60C9800F0E6FC059E021C5F
S1132E8035180595002819D00B980C992FE63E1C8F
S1132E90B4E600240794191C3039092900D922E723
S1132EA0079D0A236B430132581807901378F2E701
S1132EB0002706974EE601200D904BE605989124D5
S1132EC0A400A544F0BDC0469C390000F0B500271D
S1132ED0A9B0059006910F9309920D970B97089747
S1132EE00A970C970497099D2C78002C00D103E3D2
S1132EF0201C00F047FB002822D0099A01321078E8
S1132F00099200F03FFB0028F7D1002F00D0F1E236
S1132F10002106980A1C059CA047061C00F032FB01
S1132F20002803D0049B01330493F1E7701C04D1FF
S1132F302E98002800D1DFE201270698311CABE26D
S1132F40252C1BD0002F19D1391C06983A1C059E3C
S1132F50B047C1B2A1420AD006980122B0472E9FC1
S1132F60002F00D1C8E2099D01350995C2E2049BF6
S1132F7009990133013104930991B4E71EAC201C73
S1132F8000212822FFF7BAFC0998A54E457866600F
S1132F90281E25280CD1211C14A82822E57000F035
S1132FA03BFC099C00200234099407900E90D7E062
S1132FB02A2D02D0099C013405E0012309992370CC
S1132FC0099C88780234021C303A092A1FD800264A
S1132FD00A256E433038013436182078031C303B00
S1132FE0092BF5D91EAD6E60002E0ED10123594276
S1132FF0E97014A8291C2822013400F00DFC2B7858
S11330000994FF2507960E969DE001266E701EA971
S1133010682804D06C280CD10320887007E06378FA
S113302002228A70682B02D101258D7064196078A0
S113303001341EABD8705838202871D8FDF7F2F946
S11330407270702B70707070707070157270707018
S1133050707270707070727211707019707270701A
S1133060720003269E7078215BE09A78002A59D07A
S113307056E09978002901D0FF20D87000231EAAB9
S1133080D518FF2601332E72202BF8D1C121FE2042
S11330905172107346E09D78002D01D0FF26DE703A
S11330A063785E2B02D00134002102E0A378012171
S11330B002345D2B07D11EAB2020D8746378013411
S11330C001E0E3780334002B00D139E25D2B00D119
S11330D039E2DDB2EA081EAE0720B2181840012515
S11330E08540107A2E1C6578064316722D2D14D156
S11330F0A278002A11D05D2A0FD001339342E0DC7C
S1133100DEB2F0081EAD281807251D400126AE408A
S1133110351C067A35430572EFE701342B1CD2E7E0
S1133120FF21D9701EAE311C282214A800F074FBB4
S11331306A467A327178107833780E910790F57870
S1133140013476680994002B06D1252D08D00F9AF6
S1133150146804320F9200E000246E2D01D1ADE119
S11331600024002F01D001270AE00698391C02220E
S1133170059B9847002803D02E9F002FF3D1BBE175
S1133180692D25D012D85B2D00D115E106D8252D47
S113319000D1D3E0582D00D0AEE13EE0632D00D144
S11331A07CE0642D00D0A7E10A2012E0732D00D149
S11331B0E6E007D86E2D00D180E16F2D00D09BE1B1
S11331C0082030E0752D2DD0782D00D094E124E036
S11331D00020002F48D112A913AA11AD0191029227
S11331E0311C0095059A069B00F0E3F9119E002E10
S11331F005D12E98002828D101240B947CE1049B4E
S1133200129D9E190496002D05D080210A06904235
S113321001D043422AE0031C28E0102003E0C0460A
S1133220FFFFFF7F0A20002F1ED111AB13A912AD9F
S113323000930291069B311C0195059A00F0B9F99F
S1133240119E031C002E03D1D3E70127331C0DE08C
S1133250049A129D90190490002D07D080210E0627
S1133260B34203D05B4201E001270023002C11D0BC
S1133270079E032E09D8301CFDF7D4F80602040675
S1133280237002E0238000E023600C9D79427941A1
S11332906A180C920A9801300A906EE00E98002881
S11332A000D10126002C33D000211191A6198F42A0
S11332B000D01FE1B44219D02E9A002A04D01198EC
S11332C0002811DA01230D93002106980A1C059D9C
S11332D0A8470890013009D008AB1D7825701199D2
S11332E0013401311191E5E700240D94119E2E9AC9
S11332F0002E00D1A0E0002A03D00D99002900D1AE
S1133300F8E0049A0C9C9019013404900C94D1E0D8
S11333101194013E701C0CD0002106980A1C059BD8
S11333209847013E0890013003D0119D0135119555
S1133330F0E7119E002E00D0BCE0DDE0002F00D0AD
S1133340D5E0002106980A1C059EB047051C00F034
S113335019F9002803D0049C01340494F1E7252DC5
S113336008D001220698291CB0472E9A002A00D1C1
S113337042E7BCE004990131049101240B94B2E5C5
S113338001230B93002F17D10698391C3A1C059D75
S1133390A847051C00F0F6F8002806D0049B00217D
S11333A00133049306980A1CF1E701220698291CAC
S11333B0059B984701220B92002C49D000211191C2
S11333C08F4200D096E0013E351C711C24D02E9A09
S11333D0002A04D0119B002B1CDC01200D9000213D
S11333E006980A1C059B98470890013014D008A938
S11333F00B7814A8DA088218089807210140127A79
S113340001208840104207D02370119D01340135FA
S11334101195D8E700260D96119B08AE3178002B44
S113342005D02E9800280AD00D9A002A07D101222F
S11334300698059FB8472E9A002A5DD05AE00020CE
S1133440049E20700C9CF318013404930C942BE01C
S11334501194013E351C711C19D0002106980A1CD8
S1133460059CA0470890013011D008A8017814AA3F
S1133470CB080898D418072303400121247A9940E3
S1133480013E214203D0119D01351195E2E7119EC1
S1133490002E05D1069808990122059B984722E53C
S11334A0049B089998190490002D03DB06980122C7
S11334B0059DA8470A9901310A9114E5002C00D111
S11334C011E5079A032A00D90DE5101CFCF7AAFFA1
S11334D0070A02076D4610214A5B228003E504981F
S11334E0206000E568461026335C2370FBE4012766
S11334F00B97F8E40127F6E4002106980222059DC3
S1133500A8470A99002805D0002928D1012670422D
S11335100C9024E0002922D10B9A002A1FD00A998A
S113352006980A1C059FB8470A99041C02220698AB
S1133530B8470028EAD10698211C0122B8470EE0BA
S1133540FF211EABEDE5002900D1EBE520AD2A7883
S113355028A8D6432E7001358542F8D1E2E50C98AF
S113356029B0F0BD8022031C00B5002051008B421D
S113357004D803480122C3185878104000BDC0463F
S1133580A73900008022031C00B5002051008B42A3
S113359004D803481022C3185878104000BDC04610
S11335A0A7390000031C613B00B5192B00D8203853
S11335B000BDF0B587B0059101930D990E9B009263
S11335C000220A60071C1A60904216DB012814D0FE
S11335D0242812DC0598904207DD009C0198111CF8
S11335E0A0470126041C351C02E0141C161C4025AF
S11335F000220392974209D002E0141C161C4025B5
S113360001214842391CFCF717FF03900023029361
S113361004930598864200DD9EE0621C00D19BE085
S11336206022154200D097E0681E0F28F1D8FCF7FD
S1133630EFFE082EF03FF0F0F052F0F0F0F0F0F072
S1133640F052201CFFF79EFF021E09D00021009CAF
S113365001980A1CA047041C049801300490D8E780
S11336602B2C07D1009D0198111CA8470136041C7E
S11336700225CEE702252D2CCBD1111C0198009BED
S113368098470D9901220136041C0A60C1E7002FF6
S113369002D00825102FBCD10825302CB9D1002127
S11336A0009C01980A1CA0470136041C0425B0E7BD
S11336B0582C01D0782C09D1002101980A1C009BB8
S11336C098470136041C08251027A2E71025002F6F
S11336D09FD108279DE7002F00D10A2703980028CF
S11336E005D101225042391CFCF7A6FE0390201C90
S11336F03038092802D8B84211DB0BE0201CFFF750
S113370031FF002806D0201CFFF74CFF011C36397E
S1133710B94203DD102D1DD120257AE73738029DEB
S1133720039C0123A54201D80E9B1B68029AC5B2D3
S11337307A43D1438D4200D901230E9C8018002185
S113374023600290009D01980A1CA8470136041CBE
S113375010255EE740255CE734273D4003D10C9BF0
S113376002951D6004E0049D013E0C9976190E60DB
S1133770211C01980122009CA047029807B0F0BDCB
S113378030B5C9B2031C1F2A31D944420323234054
S113379005D0D21AC51801700130A842FBD1002906
S11337A005D00D060C042C430B0221431943540984
S11337B0031C002C0ED0251C013D19605960996032
S11337C0D960196159619961D9612033002DF3D110
S11337D06301C318D006400F07D0041C1D1C013C14
S11337E002C5002CFBD180001B18032422409D1825
S11337F0002A03D019700133AB42FBD130BD00B5B0
S1133800C9B28218904205D0037801308B42F9D1B5
S1133810013800E0002000BD10B50023934203D01E
S1133820CC5CC4540133F9E710BD00B5C9B20378C8
S1133830421C002B03D08B4205D0101CF7E74B42EF
S113384059414942084000BD00B5431E01331A786E
S1133850002AFBD1181A00BD10B50B4C0B4B9C422F
S113386002D001CC8047F9E7094C0A48844202D0CF
S113387008CC9847F9E7084C08498C4202D004CC9C
S11338809047F9E710BDC046A83A0000A83A0000E6
S1133890A83A0000A83A0000A83A0000A83A00009C
S11338A010B5084C084B9C4202D004CC9047F9E771
S11338B0064C0748844203D0043C21688847F8E753
S11338C010BDC046A83A0000A83A0000A83A00007B
S11338D0A83A000000B588421FD0002A1DD0032357
S11338E0194207D1184205D19A4203D908C9043AAA
S11338F008C0F2E70123194209D1184207D19A42BC
S113390005D90B88023A038002310230E5E70B78CF
S1133910013A037001310130DFE700BD38B50B4DCA
S1133920002D11D000242B191968002906D02B1959
S113393058689A68FFF7CEFF0C34F4E75A68002AF7
S1133940F5D198680028F2D138BDC046A83A0000E5
S1133950054B10B51C68002C04D0A068616888472A
S11339602468F8E710BDC0463CE2FF1F054B181C55
S1133970002805D0854681B00020C043009001B0E6
S1133980F746704700600020F74670474B78782070
S1133990467265654D4153544552000000010000D4
S11339A0000102000000030080808080808080800D
S11339B080909090909080808080808080808080B3
S11339C080808080808080801804040404040404BF
S11339D004040404040404040202020202020202B3
S11339E002020404040404040443434343434341E0
S11339F041414141414141414141414141414141B3
S1133A0041414104040404040423232323232321E4
S1133A102121212121212121212121212121212192
S1133A20212121040404048000000000000000009F
S1133A300000000000000000000000000000000082
S1133A400000000000000000000000000000000072
S1133A500000000000000000000000000000000062
S1133A600000000000000000000000000000000052
S1133A700000000000000000000000000000000042
S1133A800000000000000000000000000000000032
S1133A900000000000000000000000000000000022
S10B3AA000000000000000001A
S1133AA8A83A000000E0FF1F00000000000000002A
S10B3AB8000000000000000002
S90325E5F2
